{
  "contracts/Magenta.sol": {
    "Magenta": {
      "abi": [
        {
          "inputs": [
            {
              "internalType": "address",
              "name": "timely",
              "type": "address"
            },
            {
              "internalType": "address",
              "name": "router",
              "type": "address"
            },
            {
              "internalType": "uint256",
              "name": "magentaFee",
              "type": "uint256"
            }
          ],
          "stateMutability": "nonpayable",
          "type": "constructor"
        },
        {
          "inputs": [],
          "name": "AccessControlBadConfirmation",
          "type": "error"
        },
        {
          "inputs": [
            {
              "internalType": "address",
              "name": "account",
              "type": "address"
            },
            {
              "internalType": "bytes32",
              "name": "neededRole",
              "type": "bytes32"
            }
          ],
          "name": "AccessControlUnauthorizedAccount",
          "type": "error"
        },
        {
          "inputs": [
            {
              "internalType": "address",
              "name": "target",
              "type": "address"
            }
          ],
          "name": "AddressEmptyCode",
          "type": "error"
        },
        {
          "inputs": [
            {
              "internalType": "address",
              "name": "account",
              "type": "address"
            }
          ],
          "name": "AddressInsufficientBalance",
          "type": "error"
        },
        {
          "inputs": [],
          "name": "EnforcedPause",
          "type": "error"
        },
        {
          "inputs": [],
          "name": "ExpectedPause",
          "type": "error"
        },
        {
          "inputs": [],
          "name": "FailedInnerCall",
          "type": "error"
        },
        {
          "inputs": [
            {
              "internalType": "address",
              "name": "router",
              "type": "address"
            }
          ],
          "name": "InvalidRouter",
          "type": "error"
        },
        {
          "inputs": [
            {
              "internalType": "address",
              "name": "token",
              "type": "address"
            }
          ],
          "name": "SafeERC20FailedOperation",
          "type": "error"
        },
        {
          "anonymous": false,
          "inputs": [
            {
              "indexed": true,
              "internalType": "bytes32",
              "name": "identifier",
              "type": "bytes32"
            }
          ],
          "name": "DCAOrderCancelled",
          "type": "event"
        },
        {
          "anonymous": false,
          "inputs": [
            {
              "indexed": true,
              "internalType": "address",
              "name": "actor",
              "type": "address"
            },
            {
              "indexed": true,
              "internalType": "bytes32",
              "name": "identifier",
              "type": "bytes32"
            },
            {
              "indexed": false,
              "internalType": "address",
              "name": "tokenIn",
              "type": "address"
            },
            {
              "indexed": false,
              "internalType": "address",
              "name": "tokenOut",
              "type": "address"
            },
            {
              "indexed": false,
              "internalType": "uint256",
              "name": "amountIn",
              "type": "uint256"
            },
            {
              "indexed": false,
              "internalType": "uint64",
              "name": "startDelay",
              "type": "uint64"
            },
            {
              "indexed": false,
              "internalType": "uint256",
              "name": "numOfOrders",
              "type": "uint256"
            },
            {
              "indexed": false,
              "internalType": "enum Data.Minutes",
              "name": "iMinutes",
              "type": "uint8"
            },
            {
              "indexed": false,
              "internalType": "enum Data.Hours",
              "name": "iHours",
              "type": "uint8"
            }
          ],
          "name": "DCAOrderCreated",
          "type": "event"
        },
        {
          "anonymous": false,
          "inputs": [
            {
              "indexed": true,
              "internalType": "bytes32",
              "name": "identifier",
              "type": "bytes32"
            },
            {
              "indexed": false,
              "internalType": "uint256",
              "name": "amountInBalance",
              "type": "uint256"
            }
          ],
          "name": "DCAOrderExecuted",
          "type": "event"
        },
        {
          "anonymous": false,
          "inputs": [
            {
              "indexed": true,
              "internalType": "bytes32",
              "name": "identifier",
              "type": "bytes32"
            }
          ],
          "name": "LimitOrdeCancelled",
          "type": "event"
        },
        {
          "anonymous": false,
          "inputs": [
            {
              "indexed": true,
              "internalType": "address",
              "name": "actor",
              "type": "address"
            },
            {
              "indexed": true,
              "internalType": "bytes32",
              "name": "identifier",
              "type": "bytes32"
            },
            {
              "indexed": false,
              "internalType": "address",
              "name": "tokenIn",
              "type": "address"
            },
            {
              "indexed": false,
              "internalType": "address",
              "name": "tokenOut",
              "type": "address"
            },
            {
              "indexed": false,
              "internalType": "uint256",
              "name": "amountIn",
              "type": "uint256"
            },
            {
              "indexed": false,
              "internalType": "uint256",
              "name": "amountOutMin",
              "type": "uint256"
            },
            {
              "indexed": false,
              "internalType": "uint64",
              "name": "startDelay",
              "type": "uint64"
            },
            {
              "indexed": false,
              "internalType": "uint256",
              "name": "deadline",
              "type": "uint256"
            }
          ],
          "name": "LimitOrderCreated",
          "type": "event"
        },
        {
          "anonymous": false,
          "inputs": [
            {
              "indexed": true,
              "internalType": "bytes32",
              "name": "identifier",
              "type": "bytes32"
            }
          ],
          "name": "LimitOrderExecuted",
          "type": "event"
        },
        {
          "anonymous": false,
          "inputs": [
            {
              "indexed": false,
              "internalType": "address",
              "name": "account",
              "type": "address"
            }
          ],
          "name": "Paused",
          "type": "event"
        },
        {
          "anonymous": false,
          "inputs": [
            {
              "indexed": true,
              "internalType": "bytes32",
              "name": "role",
              "type": "bytes32"
            },
            {
              "indexed": true,
              "internalType": "bytes32",
              "name": "previousAdminRole",
              "type": "bytes32"
            },
            {
              "indexed": true,
              "internalType": "bytes32",
              "name": "newAdminRole",
              "type": "bytes32"
            }
          ],
          "name": "RoleAdminChanged",
          "type": "event"
        },
        {
          "anonymous": false,
          "inputs": [
            {
              "indexed": true,
              "internalType": "bytes32",
              "name": "role",
              "type": "bytes32"
            },
            {
              "indexed": true,
              "internalType": "address",
              "name": "account",
              "type": "address"
            },
            {
              "indexed": true,
              "internalType": "address",
              "name": "sender",
              "type": "address"
            }
          ],
          "name": "RoleGranted",
          "type": "event"
        },
        {
          "anonymous": false,
          "inputs": [
            {
              "indexed": true,
              "internalType": "bytes32",
              "name": "role",
              "type": "bytes32"
            },
            {
              "indexed": true,
              "internalType": "address",
              "name": "account",
              "type": "address"
            },
            {
              "indexed": true,
              "internalType": "address",
              "name": "sender",
              "type": "address"
            }
          ],
          "name": "RoleRevoked",
          "type": "event"
        },
        {
          "anonymous": false,
          "inputs": [
            {
              "indexed": true,
              "internalType": "bytes32",
              "name": "identifier",
              "type": "bytes32"
            }
          ],
          "name": "SwapOrderCancelled",
          "type": "event"
        },
        {
          "anonymous": false,
          "inputs": [
            {
              "indexed": true,
              "internalType": "address",
              "name": "actor",
              "type": "address"
            },
            {
              "indexed": true,
              "internalType": "bytes32",
              "name": "identifier",
              "type": "bytes32"
            },
            {
              "indexed": false,
              "internalType": "address",
              "name": "tokenIn",
              "type": "address"
            },
            {
              "indexed": false,
              "internalType": "address",
              "name": "tokenOut",
              "type": "address"
            },
            {
              "indexed": false,
              "internalType": "uint256",
              "name": "amountIn",
              "type": "uint256"
            },
            {
              "indexed": false,
              "internalType": "uint256",
              "name": "amountOutMin",
              "type": "uint256"
            },
            {
              "indexed": false,
              "internalType": "uint64",
              "name": "startDelay",
              "type": "uint64"
            },
            {
              "indexed": false,
              "internalType": "uint256",
              "name": "deadline",
              "type": "uint256"
            }
          ],
          "name": "SwapOrderCreated",
          "type": "event"
        },
        {
          "anonymous": false,
          "inputs": [
            {
              "indexed": true,
              "internalType": "bytes32",
              "name": "identifier",
              "type": "bytes32"
            }
          ],
          "name": "SwapOrderExecuted",
          "type": "event"
        },
        {
          "anonymous": false,
          "inputs": [
            {
              "indexed": true,
              "internalType": "bytes32",
              "name": "identifier",
              "type": "bytes32"
            }
          ],
          "name": "TransferOrderCancelled",
          "type": "event"
        },
        {
          "anonymous": false,
          "inputs": [
            {
              "indexed": true,
              "internalType": "address",
              "name": "actor",
              "type": "address"
            },
            {
              "indexed": true,
              "internalType": "bytes32",
              "name": "identifier",
              "type": "bytes32"
            },
            {
              "indexed": false,
              "internalType": "address",
              "name": "receiver",
              "type": "address"
            },
            {
              "indexed": false,
              "internalType": "address",
              "name": "tokenIn",
              "type": "address"
            },
            {
              "indexed": false,
              "internalType": "uint256",
              "name": "amountIn",
              "type": "uint256"
            },
            {
              "indexed": false,
              "internalType": "uint64",
              "name": "startDelay",
              "type": "uint64"
            },
            {
              "indexed": false,
              "internalType": "uint256",
              "name": "numOfOrders",
              "type": "uint256"
            },
            {
              "indexed": false,
              "internalType": "enum Data.Minutes",
              "name": "iMinutes",
              "type": "uint8"
            },
            {
              "indexed": false,
              "internalType": "enum Data.Hours",
              "name": "iHours",
              "type": "uint8"
            }
          ],
          "name": "TransferOrderCreated",
          "type": "event"
        },
        {
          "anonymous": false,
          "inputs": [
            {
              "indexed": true,
              "internalType": "bytes32",
              "name": "identifier",
              "type": "bytes32"
            },
            {
              "indexed": false,
              "internalType": "uint256",
              "name": "amountInBalance",
              "type": "uint256"
            }
          ],
          "name": "TransferOrderExecuted",
          "type": "event"
        },
        {
          "anonymous": false,
          "inputs": [
            {
              "indexed": false,
              "internalType": "address",
              "name": "account",
              "type": "address"
            }
          ],
          "name": "Unpaused",
          "type": "event"
        },
        {
          "inputs": [],
          "name": "ADMIN_ROLE",
          "outputs": [
            {
              "internalType": "bytes32",
              "name": "",
              "type": "bytes32"
            }
          ],
          "stateMutability": "view",
          "type": "function"
        },
        {
          "inputs": [],
          "name": "DEFAULT_ADMIN_ROLE",
          "outputs": [
            {
              "internalType": "bytes32",
              "name": "",
              "type": "bytes32"
            }
          ],
          "stateMutability": "view",
          "type": "function"
        },
        {
          "inputs": [
            {
              "internalType": "bytes32",
              "name": "identifier",
              "type": "bytes32"
            }
          ],
          "name": "cancelDCAOrder",
          "outputs": [],
          "stateMutability": "nonpayable",
          "type": "function"
        },
        {
          "inputs": [
            {
              "internalType": "bytes32",
              "name": "identifier",
              "type": "bytes32"
            }
          ],
          "name": "cancelLimitOrder",
          "outputs": [],
          "stateMutability": "nonpayable",
          "type": "function"
        },
        {
          "inputs": [
            {
              "internalType": "bytes32",
              "name": "identifier",
              "type": "bytes32"
            }
          ],
          "name": "cancelSwapOrder",
          "outputs": [],
          "stateMutability": "nonpayable",
          "type": "function"
        },
        {
          "inputs": [
            {
              "internalType": "bytes32",
              "name": "identifier",
              "type": "bytes32"
            }
          ],
          "name": "cancelTranferOrder",
          "outputs": [],
          "stateMutability": "nonpayable",
          "type": "function"
        },
        {
          "inputs": [
            {
              "internalType": "address",
              "name": "tokenIn",
              "type": "address"
            },
            {
              "internalType": "address",
              "name": "tokenOut",
              "type": "address"
            },
            {
              "internalType": "uint256",
              "name": "amountIn",
              "type": "uint256"
            },
            {
              "internalType": "uint64",
              "name": "startDelay",
              "type": "uint64"
            },
            {
              "internalType": "uint256",
              "name": "numOfOrders",
              "type": "uint256"
            },
            {
              "internalType": "enum Data.Minutes",
              "name": "iMinutes",
              "type": "uint8"
            },
            {
              "internalType": "enum Data.Hours",
              "name": "iHours",
              "type": "uint8"
            }
          ],
          "name": "createDCAOrder",
          "outputs": [
            {
              "internalType": "bytes32",
              "name": "",
              "type": "bytes32"
            }
          ],
          "stateMutability": "payable",
          "type": "function"
        },
        {
          "inputs": [
            {
              "internalType": "address",
              "name": "tokenIn",
              "type": "address"
            },
            {
              "internalType": "address",
              "name": "tokenOut",
              "type": "address"
            },
            {
              "internalType": "uint256",
              "name": "amountIn",
              "type": "uint256"
            },
            {
              "internalType": "uint256",
              "name": "amountOutMin",
              "type": "uint256"
            },
            {
              "internalType": "uint64",
              "name": "startDelay",
              "type": "uint64"
            },
            {
              "internalType": "uint256",
              "name": "deadline",
              "type": "uint256"
            }
          ],
          "name": "createLimitOrder",
          "outputs": [
            {
              "internalType": "bytes32",
              "name": "",
              "type": "bytes32"
            }
          ],
          "stateMutability": "payable",
          "type": "function"
        },
        {
          "inputs": [
            {
              "internalType": "address",
              "name": "receiver",
              "type": "address"
            },
            {
              "internalType": "address",
              "name": "tokenIn",
              "type": "address"
            },
            {
              "internalType": "uint256",
              "name": "amountIn",
              "type": "uint256"
            },
            {
              "internalType": "uint64",
              "name": "startDelay",
              "type": "uint64"
            },
            {
              "internalType": "uint256",
              "name": "numOfOrders",
              "type": "uint256"
            },
            {
              "internalType": "enum Data.Minutes",
              "name": "iMinutes",
              "type": "uint8"
            },
            {
              "internalType": "enum Data.Hours",
              "name": "iHours",
              "type": "uint8"
            }
          ],
          "name": "createTransferOrder",
          "outputs": [
            {
              "internalType": "bytes32",
              "name": "",
              "type": "bytes32"
            }
          ],
          "stateMutability": "payable",
          "type": "function"
        },
        {
          "inputs": [
            {
              "internalType": "uint256",
              "name": "amount",
              "type": "uint256"
            }
          ],
          "name": "depositFunds",
          "outputs": [],
          "stateMutability": "nonpayable",
          "type": "function"
        },
        {
          "inputs": [
            {
              "internalType": "address",
              "name": "tokenIn",
              "type": "address"
            },
            {
              "internalType": "address",
              "name": "tokenOut",
              "type": "address"
            },
            {
              "internalType": "uint256",
              "name": "amountIn",
              "type": "uint256"
            },
            {
              "internalType": "uint256",
              "name": "fee",
              "type": "uint256"
            }
          ],
          "name": "getAmountOut",
          "outputs": [
            {
              "internalType": "uint256",
              "name": "",
              "type": "uint256"
            }
          ],
          "stateMutability": "view",
          "type": "function"
        },
        {
          "inputs": [
            {
              "internalType": "bytes32",
              "name": "role",
              "type": "bytes32"
            }
          ],
          "name": "getRoleAdmin",
          "outputs": [
            {
              "internalType": "bytes32",
              "name": "",
              "type": "bytes32"
            }
          ],
          "stateMutability": "view",
          "type": "function"
        },
        {
          "inputs": [],
          "name": "getTimely",
          "outputs": [
            {
              "internalType": "address",
              "name": "",
              "type": "address"
            }
          ],
          "stateMutability": "view",
          "type": "function"
        },
        {
          "inputs": [
            {
              "internalType": "bytes32",
              "name": "role",
              "type": "bytes32"
            },
            {
              "internalType": "address",
              "name": "account",
              "type": "address"
            }
          ],
          "name": "grantRole",
          "outputs": [],
          "stateMutability": "nonpayable",
          "type": "function"
        },
        {
          "inputs": [
            {
              "internalType": "bytes32",
              "name": "role",
              "type": "bytes32"
            },
            {
              "internalType": "address",
              "name": "account",
              "type": "address"
            }
          ],
          "name": "hasRole",
          "outputs": [
            {
              "internalType": "bool",
              "name": "",
              "type": "bool"
            }
          ],
          "stateMutability": "view",
          "type": "function"
        },
        {
          "inputs": [],
          "name": "pause",
          "outputs": [],
          "stateMutability": "nonpayable",
          "type": "function"
        },
        {
          "inputs": [],
          "name": "paused",
          "outputs": [
            {
              "internalType": "bool",
              "name": "",
              "type": "bool"
            }
          ],
          "stateMutability": "view",
          "type": "function"
        },
        {
          "inputs": [
            {
              "internalType": "bytes32",
              "name": "role",
              "type": "bytes32"
            },
            {
              "internalType": "address",
              "name": "callerConfirmation",
              "type": "address"
            }
          ],
          "name": "renounceRole",
          "outputs": [],
          "stateMutability": "nonpayable",
          "type": "function"
        },
        {
          "inputs": [
            {
              "internalType": "bytes32",
              "name": "role",
              "type": "bytes32"
            },
            {
              "internalType": "address",
              "name": "account",
              "type": "address"
            }
          ],
          "name": "revokeRole",
          "outputs": [],
          "stateMutability": "nonpayable",
          "type": "function"
        },
        {
          "inputs": [
            {
              "internalType": "bytes4",
              "name": "interfaceId",
              "type": "bytes4"
            }
          ],
          "name": "supportsInterface",
          "outputs": [
            {
              "internalType": "bool",
              "name": "",
              "type": "bool"
            }
          ],
          "stateMutability": "view",
          "type": "function"
        },
        {
          "inputs": [
            {
              "internalType": "address",
              "name": "tokenIn",
              "type": "address"
            },
            {
              "internalType": "address",
              "name": "tokenOut",
              "type": "address"
            },
            {
              "internalType": "uint256",
              "name": "amountIn",
              "type": "uint256"
            },
            {
              "internalType": "uint256",
              "name": "amountOutMin",
              "type": "uint256"
            },
            {
              "internalType": "uint64",
              "name": "startDelay",
              "type": "uint64"
            },
            {
              "internalType": "uint256",
              "name": "deadline",
              "type": "uint256"
            }
          ],
          "name": "swapTokens",
          "outputs": [
            {
              "internalType": "bytes32",
              "name": "",
              "type": "bytes32"
            }
          ],
          "stateMutability": "payable",
          "type": "function"
        },
        {
          "inputs": [
            {
              "components": [
                {
                  "internalType": "bytes32",
                  "name": "identifier",
                  "type": "bytes32"
                },
                {
                  "internalType": "uint64",
                  "name": "index",
                  "type": "uint64"
                }
              ],
              "internalType": "struct Data.TimePayloadIn",
              "name": "timePayload",
              "type": "tuple"
            }
          ],
          "name": "timelyCallback",
          "outputs": [],
          "stateMutability": "nonpayable",
          "type": "function"
        },
        {
          "inputs": [
            {
              "internalType": "bytes32",
              "name": "identifier",
              "type": "bytes32"
            }
          ],
          "name": "timelyMiddleware",
          "outputs": [
            {
              "internalType": "bool",
              "name": "",
              "type": "bool"
            }
          ],
          "stateMutability": "view",
          "type": "function"
        },
        {
          "inputs": [],
          "name": "unPause",
          "outputs": [],
          "stateMutability": "nonpayable",
          "type": "function"
        },
        {
          "inputs": [
            {
              "internalType": "uint256",
              "name": "newFee",
              "type": "uint256"
            }
          ],
          "name": "updateMagentaFee",
          "outputs": [],
          "stateMutability": "nonpayable",
          "type": "function"
        },
        {
          "inputs": [
            {
              "internalType": "address",
              "name": "receiver",
              "type": "address"
            },
            {
              "internalType": "uint256",
              "name": "amount",
              "type": "uint256"
            }
          ],
          "name": "withdrawFees",
          "outputs": [],
          "stateMutability": "nonpayable",
          "type": "function"
        }
      ],
      "evm": {
        "bytecode": {
          "linkReferences": {},
          "object": "60a060409080825234620001fa576060816200362b8038038091620000258285620001ff565b833981010312620001fa576200003b8162000239565b906020836200004c82840162000239565b9201516001600160a01b039284841615620001e257608085905260018054600060038190556001600160a81b031990911660089790971b610100600160a81b0316969096179055600280546001600160a01b031916918516919091179055600455620000b8336200024e565b50620000c433620002f0565b506004818360015460081c168651928380926322f0122b60e21b82525afa908115620001d857908291859162000196575b5060448460805116868851968794859363095ea7b360e01b855260048501526000196024850152165af180156200018c576200014b575b835161329a90816200037182396080518181816101e40152610e6d0152f35b81813d831162000184575b620001628183620001ff565b81010312620001805751801515036200017d5780806200012c565b80fd5b5080fd5b503d62000156565b84513d85823e3d90fd5b82819392503d8311620001d0575b620001b08183620001ff565b81010312620001cc57620001c5829162000239565b38620000f5565b8380fd5b503d620001a4565b85513d86823e3d90fd5b85516335fdcccd60e21b815260006004820152602490fd5b600080fd5b601f909101601f19168101906001600160401b038211908210176200022357604052565b634e487b7160e01b600052604160045260246000fd5b51906001600160a01b0382168203620001fa57565b6001600160a01b031660008181527f7d7ffb7a348e1c6a02869081a26547b49160dd3df72d1d75a570eb9b698292ec60205260408120549091907fa49807205ce4d355092ef5a8a18f56e8913cf4a201fbe287825b095693c217759060ff16620002eb57808352826020526040832082845260205260408320600160ff198254161790556000805160206200360b833981519152339380a4600190565b505090565b6001600160a01b031660008181527fad3228b676f7d3cd4284a5443f17f1962b36e491b30a40b2405849e597ba5fb5602052604081205490919060ff166200036c57818052816020526040822081835260205260408220600160ff1982541617905533916000805160206200360b8339815191528180a4600190565b509056fe608080604052600436101561001357600080fd5b600090813560e01c90816301ffc9a714611f205750806313cb1f8314611ccc5780631f691f3a14611a01578063244719b51461191c578063248a9ca3146118f05780632f2ff15d146118b35780632f4be9d0146118905780633076315a14611867578063308d6c9614610e5057806336568abe14610df05780633b76594d14610d7f5780634584eff614610c9a57806346662d0f14610b7457806349488f0e14610b4a5780635c975abb14610b275780636e45bb571461083857806375b238fc146107fd5780638456cb59146107a3578063892037e8146106ab57806391d148541461065f578063a217fddf14610643578063ad3b1b4714610595578063b7649f4814610249578063d547741f14610208578063efc48f06146101c45763f7b188a51461013f57600080fd5b346101c157806003193601126101c157610157612bf9565b60015460ff8116156101975760ff19166001557f5db9ee0a495bf2e6ff9c91a7834c1ba4fdd244a5e8aa4e537bd38aeae4b073aa6020604051338152a180f35b60046040517f8dfc202b000000000000000000000000000000000000000000000000000000008152fd5b80fd5b50346101c157806003193601126101c15760206040516001600160a01b037f0000000000000000000000000000000000000000000000000000000000000000168152f35b50346101c15760403660031901126101c157610245600435610228611fd6565b90808452836020526102406001604086200154612c8c565b613030565b5080f35b5061025336611fec565b919096959492610261612b11565b6102768530336001600160a01b038a16612b47565b6102906004546102888134101561219e565b6003546121e9565b6003556001600160a01b0360015460081c166040519063127e8e4d60e01b8252836004830152602082602481845afa918215610555578992610560575b506020600491604051928380926322f0122b60e21b82525afa9081156105555761030d9183918b91610526575b5030906001600160a01b03339116612b47565b6001600160a01b0360015460081c1690813b1561052257889160248392604051948593849263b6b55f2560e01b845260048401525af18015610517579088916104ff575b5060206103c2604051610363816120d0565b67ffffffffffffffff851681526001838201526103838c6040830161222c565b6103908760608301612238565b600160808201526001600160a01b0360015460081c16906040519b8c8094819362bf4e7760e21b83526004830161225e565b03925af19788156104f25781986104aa575b50926020987f9565ca896f98673a0cb29eba8400d67ee0868e732ad92006209d426521012228959361049f9360408b9a999761047e8251610414816120ec565b3381526001600160a01b038d1660208201526001600160a01b038a16848201528a606082015285608082015261044d8760a0830161222c565b61045a8860c08301612238565b8a60e082015242610100820152826101208201528d83528f600890528383206122be565b8b8152600b8e5220600260ff19825416179055604051968796339a88612393565b0390a3604051908152f35b91949297509594926020823d6020116104ea575b816104cb60209383612142565b810103126104e557905196949592949193909260206103d4565b600080fd5b3d91506104be565b50604051903d90823e3d90fd5b610508906120a6565b610513578638610351565b8680fd5b6040513d8a823e3d90fd5b8880fd5b610548915060203d60201161054e575b6105408183612142565b810190612164565b386102fa565b503d610536565b6040513d8b823e3d90fd5b9091506020813d60201161058d575b8161057c60209383612142565b810103126104e557519060206102cd565b3d915061056f565b50346101c15760403660031901126101c1576105af611fc0565b602435906105bb612bf9565b60035482116105ff57828080848194829082156105f5575b6001600160a01b031690f1156104f2576105ef90600354612ad1565b60035580f35b6108fc91506105d3565b606460405162461bcd60e51b815260206004820152601360248201527f496e73756666696369656e7420616d6f756e74000000000000000000000000006044820152fd5b50346101c157806003193601126101c157602090604051908152f35b50346101c15760403660031901126101c1576001600160a01b036040610683611fd6565b92600435815280602052209116600052602052602060ff604060002054166040519015158152f35b50346101c15760203660031901126101c1576004356106c8612b11565b80825260076020528160408120600781016106e760ff825416156123e6565b6001600160a01b0391828154169033820361079f576107129160038560018401541692015491612ba4565b600160ff1982541617905560015460081c16803b156107905781809160246040518094819363c4d252f560e01b83528860048401525af180156107945761077c575b50807fa5372cfc0abf52b270bfc1f8b9afac84cb49534155cb8d3a47decc2dc80e597a91a280f35b610785906120a6565b610790578138610754565b5080fd5b6040513d84823e3d90fd5b8480fd5b50346101c157806003193601126101c1576107bc612bf9565b6107c4612b11565b600160ff19815416176001557f62e78cea01bee320cd4e420270b5ea74000d11b0c9f74754ebdbfc544b05a2586020604051338152a180f35b50346101c157806003193601126101c15760206040517fa49807205ce4d355092ef5a8a18f56e8913cf4a201fbe287825b095693c217758152f35b5061084236612054565b6108529694919695939295612b11565b6001600160a01b03968785169661086b8530338b612b47565b61087d6004546102888134101561219e565b6003558860015460081c16986040519963127e8e4d60e01b8b52600160048c015260209a8b81602481855afa908115610aee578c908b92610af9575b5060049192604051928380926322f0122b60e21b82525afa908115610aee576108f39183918e8d92610ad1575b5050309085339116612b47565b8160015460081c1690813b15610acd57899160248392604051948593849263b6b55f2560e01b845260048401525af1801561055557908991610ab5575b50908a61098c604051610942816120d0565b67ffffffffffffffff87168152600183820152846040820152601860608201528460808201528360015460081c16906040519c8d8094819362bf4e7760e21b83526004830161225e565b03925af198891561079457908b91839a610a72575b5061049f9492610a1a8b9c60097f881d8b2d13db5f16a1eb42b207685769fa2b66d31ffb425d3c4cc1c09fd4cd2e9b9a9997958e6040968751946109e486612109565b338652838601528c16878501528c60608501528760808501524260a08501528960c08501528560e0850152855252838320612431565b600b8d5220600260ff19825416179055604051958695339987929360a09467ffffffffffffffff939897969260c08601996001600160a01b038092168752166020860152604085015260608401521660808201520152565b828196949998979593929b503d8311610aae575b610a908183612142565b810103126104e5579251979495939491939092918a9061049f6109a1565b503d610a86565b610abe906120a6565b610ac9578738610930565b8780fd5b8980fd5b610ae79250803d1061054e576105408183612142565b388e6108e6565b6040513d8c823e3d90fd5b809250813d8311610b20575b610b0f8183612142565b810103126104e557518b60046108b9565b503d610b05565b50346101c157806003193601126101c157602060ff600154166040519015158152f35b6020610b6c610b5836612054565b94610b67949194939293612b11565b612602565b604051908152f35b50346101c15760203660031901126101c157600435610b91612b11565b808252600a60205260408220600881019060ff825416610c565783916001600160a01b0391828154169033820361079f57610bd89160068560028401541692015491612ba4565b600160ff1982541617905560015460081c16803b156107905781809160246040518094819363c4d252f560e01b83528860048401525af1801561079457610c42575b50807f0c848505d086791e836af5bd9381a53f86e3621daa7c04dca2c00e4f9a4939e791a280f35b610c4b906120a6565b610790578138610c1a565b606460405162461bcd60e51b815260206004820152601b60248201527f5472616e736665724f726465722077617320636f6d706c6574656400000000006044820152fd5b50346101c15760203660031901126101c157600435610cb7612b11565b8082526009602052816040812060078101610cd660ff825416156123e6565b6001600160a01b0391828154169033820361079f57610d019160038560018401541692015491612ba4565b600160ff1982541617905560015460081c16803b156107905781809160246040518094819363c4d252f560e01b83528860048401525af1801561079457610d6b575b50807fa90c1ea1f8bf26cf5f70d9b0fd7716e41f4c34e97aef5ab1aba7088fdbf766c791a280f35b610d74906120a6565b610790578138610d43565b50346101c15760203660031901126101c157610d99612bf9565b806001600160a01b0360015460081c16803b15610ded5781809160246040518094819363b6b55f2560e01b835260043560048401525af1801561079457610ddd5750f35b610de6906120a6565b6101c15780f35b50fd5b50346101c15760403660031901126101c157610e0a611fd6565b336001600160a01b03821603610e265761024590600435613030565b60046040517f6697b232000000000000000000000000000000000000000000000000000000008152fd5b50346101c15760403660031901126101c157336001600160a01b037f00000000000000000000000000000000000000000000000000000000000000001603611837576004358152600b60205260ff6040822054166004811015611823578015611655575b6001811461147c575b600281146111c4575b600314611041575b6001600160a01b0360015460081c16906040519163127e8e4d60e01b835260016004840152602083602481845afa92831561079457829361100d575b506040517f70a08231000000000000000000000000000000000000000000000000000000008152306004820152602081602481855afa908115611002579084918491610fcd575b5010610f5b575080f35b600583029280840460051490151715610fb9578192813b15610fb557829160248392604051948593849263b6b55f2560e01b845260048401525af1801561079457610fa4575080f35b610fad906120a6565b6101c1578080f35b5050fd5b602482634e487b7160e01b81526011600452fd5b9150506020813d602011610ffa575b81610fe960209383612142565b810103126104e55783905138610f51565b3d9150610fdc565b6040513d85823e3d90fd5b9092506020813d602011611039575b8161102960209383612142565b810103126104e557519138610f0a565b3d915061101c565b6004358152600a602052604081206008810160ff8154166111805761106f6003830154600484015490612af1565b600283019060066001600160a01b038354169461109c8360018301976001600160a01b0389541690612ba4565b01936110a9828654612ad1565b8092818755116110ec575b50505050546040519081527f54b285b8a6ab0d6f347202ca2858b0846dd6fb4e2970d757469805726c5ada92602060043592a2610ece565b8161115d575b505050600160ff19825416179055816001600160a01b0360015460081c16803b156107905781809160246040518094819363c4d252f560e01b835260043560048401525af1801561079457611149575b80806110b4565b611152906120a6565b610790578138611142565b6001600160a01b038061117594541691541690612ba4565b8282553880806110f2565b606460405162461bcd60e51b815260206004820152602060248201527f5472616e736665724f7264657220686173206265656e20636f6d706c657465646044820152fd5b6004358252600860205260408220906111e460ff60088401541615613186565b6111f76003830154600484015490612af1565b9160405161120481612126565b6002815260403660208301376112866020856001600160a01b036001860154168061122e866124c6565b526001600160a01b03600287015416611246866124e9565b526001600160a01b03600254168960405180968195829463095ea7b360e01b845260048401602090939291936001600160a01b0360408201951681520152565b03925af1801561147157611442575b506001600160a01b03600254166001600160a01b0383541691600a4201421161142e5786916112ef91836040518096819582946338ed173960e01b84528c600485015284602485015260a0604485015260a484019061258d565b906064830152600a4201608483015203925af1801561142357611401575b50600681019261131e818554612ad1565b809181865511611364575b5050600391546040519081527f48ba250ae62c1335c72d7f362e2c3d651b0e9bcd3e38326dbac1e52d0562834c602060043592a29050610ec6565b806113d5575b506008600160ff19828401541617910155826001600160a01b0360015460081c16803b156107905781809160246040518094819363c4d252f560e01b835260043560048401525af180156107945715611329576113c6906120a6565b6113d1578238611329565b8280fd5b6113f8906001600160a01b036001840154166001600160a01b0384541690612ba4565b8383553861136a565b61141c903d8087833e6114148183612142565b810190612511565b503861130d565b6040513d87823e3d90fd5b602487634e487b7160e01b81526011600452fd5b6114639060203d60201161146a575b61145b8183612142565b8101906124f9565b5038611295565b503d611451565b6040513d88823e3d90fd5b6004358252600960205260408220600781019061149d60ff83541615613186565b836040516114aa81612126565b6002815260403660208301376001600160a01b03600184015416806114ce836124c6565b526001600160a01b036002850154166114e6836124e9565b5260025460038501805460405163095ea7b360e01b81526001600160a01b0390931660048401526024830152916020908290604490829088905af1801561162b57611636575b506001600160a01b036002541690548360048601549161157260066001600160a01b03895416980154604051988997889687956338ed173960e01b8752600487016125ca565b03925af1801561162b57611611575b50600160ff19825416179055816001600160a01b0360015460081c16803b156107905781809160246040518094819363c4d252f560e01b835260043560048401525af18015610794576115fd575b50506004357f9fb1132030bbdb5134b7c78b7fff2a49745433acfa0aae4a4fb481813bb8d87c8380a2610ebd565b611606906120a6565b6107905781386115cf565b611624903d8086833e6114148183612142565b5038611581565b6040513d86823e3d90fd5b61164e9060203d60201161146a5761145b8183612142565b503861152c565b6004358252600760205260408220600781019061167660ff83541615613186565b8360405161168381612126565b6002815260403660208301376001600160a01b03600184015416806116a7836124c6565b526001600160a01b036002850154166116bf836124e9565b5260025460038501805460405163095ea7b360e01b81526001600160a01b0390931660048401526024830152916020908290604490829088905af1801561162b57611804575b506001600160a01b036002541690548360048601549161174b60066001600160a01b03895416980154604051988997889687956338ed173960e01b8752600487016125ca565b03925af1801561162b576117ea575b50600160ff19825416179055816001600160a01b0360015460081c16803b156107905781809160246040518094819363c4d252f560e01b835260043560048401525af18015610794576117d6575b50506004357f2248d3a7ef2c2079b1fdd5ae3de854c74f65a50086908f1f30435ebc99812a128380a2610eb4565b6117df906120a6565b6107905781386117a8565b6117fd903d8086833e6114148183612142565b503861175a565b61181c9060203d60201161146a5761145b8183612142565b5038611705565b602482634e487b7160e01b81526021600452fd5b60246040517fd7f73334000000000000000000000000000000000000000000000000000000008152336004820152fd5b50346101c15760203660031901126101c1576020611886600435612d31565b6040519015158152f35b50346101c15760203660031901126101c1576118aa612bf9565b60043560045580f35b50346101c15760403660031901126101c1576102456004356118d3611fd6565b90808452836020526118eb6001604086200154612c8c565b612cb2565b50346101c15760203660031901126101c157600160406020926004358152808452200154604051908152f35b50346101c15760203660031901126101c157600435611939612b11565b808252600860205281604081206008810161195860ff825416156123e6565b6001600160a01b0391828154169033820361079f576119839160068560018401541692015491612ba4565b600160ff1982541617905560015460081c16803b156107905781809160246040518094819363c4d252f560e01b83528860048401525af18015610794576119ed575b50807fbbde28112400eaee5df97f22c92d999734e40e3e72e4418c370f49161128947191a280f35b6119f6906120a6565b6107905781386119c5565b50611a0b36611fec565b919096959492611a19612b11565b6001600160a01b0386163314611c8857611a3e8530336001600160a01b038816612b47565b611a506004546102888134101561219e565b6003556001600160a01b0360015460081c166040519063127e8e4d60e01b8252836004830152602082602481845afa918215610555578992611c53575b506020600491604051928380926322f0122b60e21b82525afa90811561055557611acc9183918b91610526575030906001600160a01b03339116612b47565b6001600160a01b0360015460081c1690813b1561052257889160248392604051948593849263b6b55f2560e01b845260048401525af1801561051757611c40575b50866020611b20604051610363816120d0565b03925af19788156104f2578198611bfd575b50926020987f15a702fd8f005a309638a801aee50874761962676cd3a81b1eef8388847b796c959361049f9360408b9a9997611bdc8251611b72816120ec565b3381526001600160a01b038d1660208201526001600160a01b038a16848201528a6060820152856080820152611bab8760a0830161222c565b611bb88860c08301612238565b8a60e082015242610100820152826101208201528d83528f600a90528383206122be565b8b8152600b8e5220600360ff19825416179055604051968796339a88612393565b91949297509594926020823d602011611c38575b81611c1e60209383612142565b810103126104e55790519694959294919390926020611b32565b3d9150611c11565b611c4c909791976120a6565b9538611b0d565b9091506020813d602011611c80575b81611c6f60209383612142565b810103126105225751906020611a8d565b3d9150611c62565b606460405162461bcd60e51b815260206004820152601660248201527f43616e277420646f2073656c66207472616e73666572000000000000000000006044820152fd5b50346101c15760803660031901126101c157611ce6611fc0565b90611cef611fd6565b90604435606435916001600160a01b03806002541695604051809763c45a015560e01b825281600460209a8b935afa90811561162b5760448493848b9481948991611f03575b50604051968795869463e6a4390560e01b8652169c8d6004860152166024840152165afa908115611002579082918491611ee6575b50169460405191630240bc6b60e21b83526060836004818a5afa96871561162b57889085948699611e84575b509060049160405192838092630dfe168160e01b82525afa908115611423578591611e67575b501603611e615793915b6dffffffffffffffffffffffffffff928316938015611e5757905b80151580611e4c575b80611e43575b156113d157611e0d611e06612710938693612ade565b9586612ade565b951602918216918203611e2f5750610b6c9291611e29916121e9565b90612af1565b80634e487b7160e01b602492526011600452fd5b50841515611df0565b508386161515611dea565b506126f290611de1565b91611dc6565b611e7e9150893d8b1161054e576105408183612142565b38611dbc565b94509750506060833d606011611ede575b81611ea260609383612142565b81010312611eda57611eb383612183565b6040611ec08a8601612183565b94015163ffffffff81160361079f57929688906004611d96565b8380fd5b3d9150611e95565b611efd9150883d8a1161054e576105408183612142565b38611d6a565b611f1a9150863d881161054e576105408183612142565b38611d35565b905034610790576020366003190112610790576004357fffffffff0000000000000000000000000000000000000000000000000000000081168091036113d157602092507f7965db0b000000000000000000000000000000000000000000000000000000008114908115611f96575b5015158152f35b7f01ffc9a70000000000000000000000000000000000000000000000000000000091501438611f8f565b600435906001600160a01b03821682036104e557565b602435906001600160a01b03821682036104e557565b60e09060031901126104e5576001600160a01b039060043582811681036104e5579160243590811681036104e557906044359060643567ffffffffffffffff811681036104e557906084359060a435600f8110156104e5579060c43560198110156104e55790565b60c09060031901126104e5576001600160a01b039060043582811681036104e5579160243590811681036104e55790604435906064359060843567ffffffffffffffff811681036104e5579060a43590565b67ffffffffffffffff81116120ba57604052565b634e487b7160e01b600052604160045260246000fd5b60a0810190811067ffffffffffffffff8211176120ba57604052565b610140810190811067ffffffffffffffff8211176120ba57604052565b610100810190811067ffffffffffffffff8211176120ba57604052565b6060810190811067ffffffffffffffff8211176120ba57604052565b90601f8019910116810190811067ffffffffffffffff8211176120ba57604052565b908160209103126104e557516001600160a01b03811681036104e55790565b51906dffffffffffffffffffffffffffff821682036104e557565b156121a557565b606460405162461bcd60e51b815260206004820152601060248201527f496e73756666696369656e7420666565000000000000000000000000000000006044820152fd5b919082018092116121f657565b634e487b7160e01b600052601160045260246000fd5b6002111561221657565b634e487b7160e01b600052602160045260246000fd5b600f8210156122165752565b60198210156122165752565b90600f8210156122165752565b9060198210156122165752565b91909160808060a083019467ffffffffffffffff815116845260208101516122858161220c565b602085015261229c60408201516040860190612244565b6122ae60608201516060860190612251565b0151916122ba8361220c565b0152565b6001600160a01b038083511673ffffffffffffffffffffffffffffffffffffffff1990818454161783556001830182602086015116828254161790556002830191604085015116908254161790556060820151600382015560808201516004820155600581019160a081015192600f8410156122165780549160c0810151916019831015612216576123919560089460ff61ff0061012096881b1692169061ffff19161717905560e0810151600685015561010081015160078501550151151591019060ff801983541691151516179055565b565b929467ffffffffffffffff60c0956123df949a9997612391999460e088019c6001600160a01b0380921689521660208801526040870152166060850152608084015260a0830190612244565b0190612251565b156123ed57565b606460405162461bcd60e51b815260206004820152601360248201527f4f726465722077617320636f6d706c65746564000000000000000000000000006044820152fd5b600760e0612391936001600160a01b038082511673ffffffffffffffffffffffffffffffffffffffff199081875416178655600186018260208501511682825416179055600286019160408401511690825416179055606081015160038501556080810151600485015560a0810151600585015560c081015160068501550151151591019060ff801983541691151516179055565b8051156124d35760200190565b634e487b7160e01b600052603260045260246000fd5b8051600110156124d35760400190565b908160209103126104e5575180151581036104e55790565b9060209081838203126104e557825167ffffffffffffffff938482116104e5570181601f820112156104e55780519384116120ba578360051b906040519461255b85840187612142565b855283808601928201019283116104e5578301905b82821061257e575050505090565b81518152908301908301612570565b90815180825260208080930193019160005b8281106125ad575050505090565b83516001600160a01b03168552938101939281019260010161259f565b916080936125f7916001600160a01b0393989796988552602085015260a0604085015260a084019061258d565b951660608201520152565b9190949293946000926001600160a01b038082169161262385303386612b47565b67ffffffffffffffff91828a168061280c57506040805161264381612126565b600281528136602083013785612658826124c6565b52612662816124e9565b83881690819052600254835163095ea7b360e01b81529085166001600160a01b03166004820152602481018a90529093906020816044818e8c5af18015612802578c938c8f92948d9482966127e3575b5060025416926126d98851978896879586946338ed173960e01b86523392600487016125ca565b03925af180156127d9576127bf575b5080519160208301953387528284015260608301528660808301524260a083015260a0825260c0820193828510908511176120ba577f2248d3a7ef2c2079b1fdd5ae3de854c74f65a50086908f1f30435ebc99812a12987f553b73b35b99452e27a2dc1c1f730ffc524018aea251b967e30924736ebef37695856127b69352835190209b8c9b8c99339960bf199789929360a09467ffffffffffffffff939897969260c08601996001600160a01b038092168752166020860152604085015260608401521660808201520152565b030190a380a290565b6127d2903d808b833e6114148183612142565b50386126e8565b82513d8b823e3d90fd5b6127fb9060203d60201161146a5761145b8183612142565b50386126b2565b84513d8d823e3d90fd5b99939091979495969892506128296004546102888134101561219e565b6003558160015460081c169060409283519263127e8e4d60e01b8452600160048501526020938481602481855afa908115612a995785908e92612aa3575b50600491928751928380926322f0122b60e21b82525afa908115612a995761289e9183918f91612a7c575b50309085339116612b47565b8160015460081c1690813b15612a78578c91602483928851948593849263b6b55f2560e01b845260048401525af18015612a6e57612a57575b50826129288c9d8651906128ea826120d0565b81528d83820152600e8782015260186060820152600160808201528360015460081c169087519e8f8094819362bf4e7760e21b83526004830161225e565b03925af19a8b15612a4d578c9b612a0c575b50928a9b600b7f553b73b35b99452e27a2dc1c1f730ffc524018aea251b967e30924736ebef3769a999896946129b684958f612a069b9987519261297d84612109565b338452858401528d16878301528d60608301528860808301524260a08301528a60c08301528560e0830152855260078352858520612431565b522060ff19815416905551958695339987929360a09467ffffffffffffffff939897969260c08601996001600160a01b038092168752166020860152604085015260608401521660808201520152565b0390a390565b909593919897969492809b5081813d8311612a46575b612a2c8183612142565b810103126104e5578190519a92949697989193959061293a565b503d612a22565b84513d8e823e3d90fd5b6129289c9b612a6685926120a6565b9b9c506128d7565b85513d8e823e3d90fd5b8c80fd5b612a939150873d891161054e576105408183612142565b38612892565b86513d8f823e3d90fd5b809250813d8311612aca575b612ab98183612142565b81010312612a785751846004612867565b503d612aaf565b919082039182116121f657565b818102929181159184041417156121f657565b8115612afb570490565b634e487b7160e01b600052601260045260246000fd5b60ff60015416612b1d57565b60046040517fd93c0665000000000000000000000000000000000000000000000000000000008152fd5b909261239193604051937f23b872dd0000000000000000000000000000000000000000000000000000000060208601526001600160a01b038092166024860152166044840152606483015260648252612b9f826120d0565b6130a6565b6040517fa9059cbb0000000000000000000000000000000000000000000000000000000060208201526001600160a01b0392909216602483015260448083019390935291815261239191612b9f606483612142565b3360009081527f7d7ffb7a348e1c6a02869081a26547b49160dd3df72d1d75a570eb9b698292ec60205260409020547fa49807205ce4d355092ef5a8a18f56e8913cf4a201fbe287825b095693c217759060ff1615612c555750565b604490604051907fe2517d3f0000000000000000000000000000000000000000000000000000000082523360048301526024820152fd5b80600052600060205260406000203360005260205260ff6040600020541615612c555750565b90600091808352826020526001600160a01b036040842092169182845260205260ff60408420541615600014612d2c57808352826020526040832082845260205260408320600160ff198254161790557f2f8788117e7eff1d82e926ec794901d17c78024a50270940304540a733656f0d339380a4600190565b505090565b6000908082526020600b815260409160ff8385205416906004918281101561301d57600114612d64575050505050600190565b8452600982528284209384928451612d7b81612109565b6001600160a01b0380865416825284816001880154169283858201528260028901541690818a82015260e060ff60078560038d01549c8d606087015201549d608085019e8f52600581015460a0860152600681015460c086015201541615159101528483600254168a519384809263c45a015560e01b82525afa9182156130135791859184938892612ff1575b506044908b51948593849263e6a4390560e01b8452898d8501526024840152165afa908115612fe7579082918691612fca575b501696805193630240bc6b60e21b855260608588818c5afa988915612fc0578695879a612f63575b5090808892845193848092630dfe168160e01b82525afa928315612f5a57508692612f3d575b50501603612f375793915b6dffffffffffffffffffffffffffff8093168415801580612f2c575b80612f23575b15611eda576126f2808702968704141715612f105783612ed96127109287612ade565b961602928316928303612efd575050612ef69291611e29916121e9565b9051111590565b906011602492634e487b7160e01b835252fd5b602483601184634e487b7160e01b835252fd5b50811515612eb6565b508487161515612eb0565b91612e94565b612f539250803d1061054e576105408183612142565b3880612e89565b513d88823e3d90fd5b955098506060853d606011612fb8575b81612f8060609383612142565b81010312612fb457612f9185612183565b82612f9d838801612183565b96015163ffffffff81160361051357949881612e63565b8580fd5b3d9150612f73565b82513d88823e3d90fd5b612fe19150853d871161054e576105408183612142565b38612e3b565b88513d87823e3d90fd5b604491925061300c90843d861161054e576105408183612142565b9190612e08565b89513d88823e3d90fd5b602486602185634e487b7160e01b835252fd5b90600091808352826020526001600160a01b036040842092169182845260205260ff604084205416600014612d2c5780835282602052604083208284526020526040832060ff1981541690557ff6391f5c32d9c69d2a47ea670b442974b53935d1edc7fd64eb21e047a839171b339380a4600190565b6001600160a01b031690600080826020829451910182865af13d15613179573d67ffffffffffffffff8111613165576040516131039392916130f2601f8201601f191660200183612142565b8152809260203d92013e5b836131d1565b805190811515918261314a575b50506131195750565b602490604051907f5274afe70000000000000000000000000000000000000000000000000000000082526004820152fd5b61315d92506020809183010191016124f9565b153880613110565b602483634e487b7160e01b81526041600452fd5b61310391506060906130fd565b1561318d57565b606460405162461bcd60e51b815260206004820152601860248201527f4f7264657220686173206265656e20636f6d706c6574656400000000000000006044820152fd5b9061321057508051156131e657805190602001fd5b60046040517f1425ea42000000000000000000000000000000000000000000000000000000008152fd5b8151158061325b575b613221575090565b6024906001600160a01b03604051917f9996b315000000000000000000000000000000000000000000000000000000008352166004820152fd5b50803b1561321956fea2646970667358221220503931c556fe292aab6952cf85a739fd08b067b3325d61527b4f333ebe63621564736f6c634300081800332f8788117e7eff1d82e926ec794901d17c78024a50270940304540a733656f0d",
          "opcodes": "PUSH1 0xA0 PUSH1 0x40 SWAP1 DUP1 DUP3 MSTORE CALLVALUE PUSH3 0x1FA JUMPI PUSH1 0x60 DUP2 PUSH3 0x362B DUP1 CODESIZE SUB DUP1 SWAP2 PUSH3 0x25 DUP3 DUP6 PUSH3 0x1FF JUMP JUMPDEST DUP4 CODECOPY DUP2 ADD SUB SLT PUSH3 0x1FA JUMPI PUSH3 0x3B DUP2 PUSH3 0x239 JUMP JUMPDEST SWAP1 PUSH1 0x20 DUP4 PUSH3 0x4C DUP3 DUP5 ADD PUSH3 0x239 JUMP JUMPDEST SWAP3 ADD MLOAD PUSH1 0x1 PUSH1 0x1 PUSH1 0xA0 SHL SUB SWAP3 DUP5 DUP5 AND ISZERO PUSH3 0x1E2 JUMPI PUSH1 0x80 DUP6 SWAP1 MSTORE PUSH1 0x1 DUP1 SLOAD PUSH1 0x0 PUSH1 0x3 DUP2 SWAP1 SSTORE PUSH1 0x1 PUSH1 0x1 PUSH1 0xA8 SHL SUB NOT SWAP1 SWAP2 AND PUSH1 0x8 SWAP8 SWAP1 SWAP8 SHL PUSH2 0x100 PUSH1 0x1 PUSH1 0xA8 SHL SUB AND SWAP7 SWAP1 SWAP7 OR SWAP1 SSTORE PUSH1 0x2 DUP1 SLOAD PUSH1 0x1 PUSH1 0x1 PUSH1 0xA0 SHL SUB NOT AND SWAP2 DUP6 AND SWAP2 SWAP1 SWAP2 OR SWAP1 SSTORE PUSH1 0x4 SSTORE PUSH3 0xB8 CALLER PUSH3 0x24E JUMP JUMPDEST POP PUSH3 0xC4 CALLER PUSH3 0x2F0 JUMP JUMPDEST POP PUSH1 0x4 DUP2 DUP4 PUSH1 0x1 SLOAD PUSH1 0x8 SHR AND DUP7 MLOAD SWAP3 DUP4 DUP1 SWAP3 PUSH4 0x22F0122B PUSH1 0xE2 SHL DUP3 MSTORE GAS STATICCALL SWAP1 DUP2 ISZERO PUSH3 0x1D8 JUMPI SWAP1 DUP3 SWAP2 DUP6 SWAP2 PUSH3 0x196 JUMPI JUMPDEST POP PUSH1 0x44 DUP5 PUSH1 0x80 MLOAD AND DUP7 DUP9 MLOAD SWAP7 DUP8 SWAP5 DUP6 SWAP4 PUSH4 0x95EA7B3 PUSH1 0xE0 SHL DUP6 MSTORE PUSH1 0x4 DUP6 ADD MSTORE PUSH1 0x0 NOT PUSH1 0x24 DUP6 ADD MSTORE AND GAS CALL DUP1 ISZERO PUSH3 0x18C JUMPI PUSH3 0x14B JUMPI JUMPDEST DUP4 MLOAD PUSH2 0x329A SWAP1 DUP2 PUSH3 0x371 DUP3 CODECOPY PUSH1 0x80 MLOAD DUP2 DUP2 DUP2 PUSH2 0x1E4 ADD MSTORE PUSH2 0xE6D ADD MSTORE RETURN JUMPDEST DUP2 DUP2 RETURNDATASIZE DUP4 GT PUSH3 0x184 JUMPI JUMPDEST PUSH3 0x162 DUP2 DUP4 PUSH3 0x1FF JUMP JUMPDEST DUP2 ADD SUB SLT PUSH3 0x180 JUMPI MLOAD DUP1 ISZERO ISZERO SUB PUSH3 0x17D JUMPI DUP1 DUP1 PUSH3 0x12C JUMP JUMPDEST DUP1 REVERT JUMPDEST POP DUP1 REVERT JUMPDEST POP RETURNDATASIZE PUSH3 0x156 JUMP JUMPDEST DUP5 MLOAD RETURNDATASIZE DUP6 DUP3 RETURNDATACOPY RETURNDATASIZE SWAP1 REVERT JUMPDEST DUP3 DUP2 SWAP4 SWAP3 POP RETURNDATASIZE DUP4 GT PUSH3 0x1D0 JUMPI JUMPDEST PUSH3 0x1B0 DUP2 DUP4 PUSH3 0x1FF JUMP JUMPDEST DUP2 ADD SUB SLT PUSH3 0x1CC JUMPI PUSH3 0x1C5 DUP3 SWAP2 PUSH3 0x239 JUMP JUMPDEST CODESIZE PUSH3 0xF5 JUMP JUMPDEST DUP4 DUP1 REVERT JUMPDEST POP RETURNDATASIZE PUSH3 0x1A4 JUMP JUMPDEST DUP6 MLOAD RETURNDATASIZE DUP7 DUP3 RETURNDATACOPY RETURNDATASIZE SWAP1 REVERT JUMPDEST DUP6 MLOAD PUSH4 0x35FDCCCD PUSH1 0xE2 SHL DUP2 MSTORE PUSH1 0x0 PUSH1 0x4 DUP3 ADD MSTORE PUSH1 0x24 SWAP1 REVERT JUMPDEST PUSH1 0x0 DUP1 REVERT JUMPDEST PUSH1 0x1F SWAP1 SWAP2 ADD PUSH1 0x1F NOT AND DUP2 ADD SWAP1 PUSH1 0x1 PUSH1 0x1 PUSH1 0x40 SHL SUB DUP3 GT SWAP1 DUP3 LT OR PUSH3 0x223 JUMPI PUSH1 0x40 MSTORE JUMP JUMPDEST PUSH4 0x4E487B71 PUSH1 0xE0 SHL PUSH1 0x0 MSTORE PUSH1 0x41 PUSH1 0x4 MSTORE PUSH1 0x24 PUSH1 0x0 REVERT JUMPDEST MLOAD SWAP1 PUSH1 0x1 PUSH1 0x1 PUSH1 0xA0 SHL SUB DUP3 AND DUP3 SUB PUSH3 0x1FA JUMPI JUMP JUMPDEST PUSH1 0x1 PUSH1 0x1 PUSH1 0xA0 SHL SUB AND PUSH1 0x0 DUP2 DUP2 MSTORE PUSH32 0x7D7FFB7A348E1C6A02869081A26547B49160DD3DF72D1D75A570EB9B698292EC PUSH1 0x20 MSTORE PUSH1 0x40 DUP2 KECCAK256 SLOAD SWAP1 SWAP2 SWAP1 PUSH32 0xA49807205CE4D355092EF5A8A18F56E8913CF4A201FBE287825B095693C21775 SWAP1 PUSH1 0xFF AND PUSH3 0x2EB JUMPI DUP1 DUP4 MSTORE DUP3 PUSH1 0x20 MSTORE PUSH1 0x40 DUP4 KECCAK256 DUP3 DUP5 MSTORE PUSH1 0x20 MSTORE PUSH1 0x40 DUP4 KECCAK256 PUSH1 0x1 PUSH1 0xFF NOT DUP3 SLOAD AND OR SWAP1 SSTORE PUSH1 0x0 DUP1 MLOAD PUSH1 0x20 PUSH3 0x360B DUP4 CODECOPY DUP2 MLOAD SWAP2 MSTORE CALLER SWAP4 DUP1 LOG4 PUSH1 0x1 SWAP1 JUMP JUMPDEST POP POP SWAP1 JUMP JUMPDEST PUSH1 0x1 PUSH1 0x1 PUSH1 0xA0 SHL SUB AND PUSH1 0x0 DUP2 DUP2 MSTORE PUSH32 0xAD3228B676F7D3CD4284A5443F17F1962B36E491B30A40B2405849E597BA5FB5 PUSH1 0x20 MSTORE PUSH1 0x40 DUP2 KECCAK256 SLOAD SWAP1 SWAP2 SWAP1 PUSH1 0xFF AND PUSH3 0x36C JUMPI DUP2 DUP1 MSTORE DUP2 PUSH1 0x20 MSTORE PUSH1 0x40 DUP3 KECCAK256 DUP2 DUP4 MSTORE PUSH1 0x20 MSTORE PUSH1 0x40 DUP3 KECCAK256 PUSH1 0x1 PUSH1 0xFF NOT DUP3 SLOAD AND OR SWAP1 SSTORE CALLER SWAP2 PUSH1 0x0 DUP1 MLOAD PUSH1 0x20 PUSH3 0x360B DUP4 CODECOPY DUP2 MLOAD SWAP2 MSTORE DUP2 DUP1 LOG4 PUSH1 0x1 SWAP1 JUMP JUMPDEST POP SWAP1 JUMP INVALID PUSH1 0x80 DUP1 PUSH1 0x40 MSTORE PUSH1 0x4 CALLDATASIZE LT ISZERO PUSH2 0x13 JUMPI PUSH1 0x0 DUP1 REVERT JUMPDEST PUSH1 0x0 SWAP1 DUP2 CALLDATALOAD PUSH1 0xE0 SHR SWAP1 DUP2 PUSH4 0x1FFC9A7 EQ PUSH2 0x1F20 JUMPI POP DUP1 PUSH4 0x13CB1F83 EQ PUSH2 0x1CCC JUMPI DUP1 PUSH4 0x1F691F3A EQ PUSH2 0x1A01 JUMPI DUP1 PUSH4 0x244719B5 EQ PUSH2 0x191C JUMPI DUP1 PUSH4 0x248A9CA3 EQ PUSH2 0x18F0 JUMPI DUP1 PUSH4 0x2F2FF15D EQ PUSH2 0x18B3 JUMPI DUP1 PUSH4 0x2F4BE9D0 EQ PUSH2 0x1890 JUMPI DUP1 PUSH4 0x3076315A EQ PUSH2 0x1867 JUMPI DUP1 PUSH4 0x308D6C96 EQ PUSH2 0xE50 JUMPI DUP1 PUSH4 0x36568ABE EQ PUSH2 0xDF0 JUMPI DUP1 PUSH4 0x3B76594D EQ PUSH2 0xD7F JUMPI DUP1 PUSH4 0x4584EFF6 EQ PUSH2 0xC9A JUMPI DUP1 PUSH4 0x46662D0F EQ PUSH2 0xB74 JUMPI DUP1 PUSH4 0x49488F0E EQ PUSH2 0xB4A JUMPI DUP1 PUSH4 0x5C975ABB EQ PUSH2 0xB27 JUMPI DUP1 PUSH4 0x6E45BB57 EQ PUSH2 0x838 JUMPI DUP1 PUSH4 0x75B238FC EQ PUSH2 0x7FD JUMPI DUP1 PUSH4 0x8456CB59 EQ PUSH2 0x7A3 JUMPI DUP1 PUSH4 0x892037E8 EQ PUSH2 0x6AB JUMPI DUP1 PUSH4 0x91D14854 EQ PUSH2 0x65F JUMPI DUP1 PUSH4 0xA217FDDF EQ PUSH2 0x643 JUMPI DUP1 PUSH4 0xAD3B1B47 EQ PUSH2 0x595 JUMPI DUP1 PUSH4 0xB7649F48 EQ PUSH2 0x249 JUMPI DUP1 PUSH4 0xD547741F EQ PUSH2 0x208 JUMPI DUP1 PUSH4 0xEFC48F06 EQ PUSH2 0x1C4 JUMPI PUSH4 0xF7B188A5 EQ PUSH2 0x13F JUMPI PUSH1 0x0 DUP1 REVERT JUMPDEST CALLVALUE PUSH2 0x1C1 JUMPI DUP1 PUSH1 0x3 NOT CALLDATASIZE ADD SLT PUSH2 0x1C1 JUMPI PUSH2 0x157 PUSH2 0x2BF9 JUMP JUMPDEST PUSH1 0x1 SLOAD PUSH1 0xFF DUP2 AND ISZERO PUSH2 0x197 JUMPI PUSH1 0xFF NOT AND PUSH1 0x1 SSTORE PUSH32 0x5DB9EE0A495BF2E6FF9C91A7834C1BA4FDD244A5E8AA4E537BD38AEAE4B073AA PUSH1 0x20 PUSH1 0x40 MLOAD CALLER DUP2 MSTORE LOG1 DUP1 RETURN JUMPDEST PUSH1 0x4 PUSH1 0x40 MLOAD PUSH32 0x8DFC202B00000000000000000000000000000000000000000000000000000000 DUP2 MSTORE REVERT JUMPDEST DUP1 REVERT JUMPDEST POP CALLVALUE PUSH2 0x1C1 JUMPI DUP1 PUSH1 0x3 NOT CALLDATASIZE ADD SLT PUSH2 0x1C1 JUMPI PUSH1 0x20 PUSH1 0x40 MLOAD PUSH1 0x1 PUSH1 0x1 PUSH1 0xA0 SHL SUB PUSH32 0x0 AND DUP2 MSTORE RETURN JUMPDEST POP CALLVALUE PUSH2 0x1C1 JUMPI PUSH1 0x40 CALLDATASIZE PUSH1 0x3 NOT ADD SLT PUSH2 0x1C1 JUMPI PUSH2 0x245 PUSH1 0x4 CALLDATALOAD PUSH2 0x228 PUSH2 0x1FD6 JUMP JUMPDEST SWAP1 DUP1 DUP5 MSTORE DUP4 PUSH1 0x20 MSTORE PUSH2 0x240 PUSH1 0x1 PUSH1 0x40 DUP7 KECCAK256 ADD SLOAD PUSH2 0x2C8C JUMP JUMPDEST PUSH2 0x3030 JUMP JUMPDEST POP DUP1 RETURN JUMPDEST POP PUSH2 0x253 CALLDATASIZE PUSH2 0x1FEC JUMP JUMPDEST SWAP2 SWAP1 SWAP7 SWAP6 SWAP5 SWAP3 PUSH2 0x261 PUSH2 0x2B11 JUMP JUMPDEST PUSH2 0x276 DUP6 ADDRESS CALLER PUSH1 0x1 PUSH1 0x1 PUSH1 0xA0 SHL SUB DUP11 AND PUSH2 0x2B47 JUMP JUMPDEST PUSH2 0x290 PUSH1 0x4 SLOAD PUSH2 0x288 DUP2 CALLVALUE LT ISZERO PUSH2 0x219E JUMP JUMPDEST PUSH1 0x3 SLOAD PUSH2 0x21E9 JUMP JUMPDEST PUSH1 0x3 SSTORE PUSH1 0x1 PUSH1 0x1 PUSH1 0xA0 SHL SUB PUSH1 0x1 SLOAD PUSH1 0x8 SHR AND PUSH1 0x40 MLOAD SWAP1 PUSH4 0x127E8E4D PUSH1 0xE0 SHL DUP3 MSTORE DUP4 PUSH1 0x4 DUP4 ADD MSTORE PUSH1 0x20 DUP3 PUSH1 0x24 DUP2 DUP5 GAS STATICCALL SWAP2 DUP3 ISZERO PUSH2 0x555 JUMPI DUP10 SWAP3 PUSH2 0x560 JUMPI JUMPDEST POP PUSH1 0x20 PUSH1 0x4 SWAP2 PUSH1 0x40 MLOAD SWAP3 DUP4 DUP1 SWAP3 PUSH4 0x22F0122B PUSH1 0xE2 SHL DUP3 MSTORE GAS STATICCALL SWAP1 DUP2 ISZERO PUSH2 0x555 JUMPI PUSH2 0x30D SWAP2 DUP4 SWAP2 DUP12 SWAP2 PUSH2 0x526 JUMPI JUMPDEST POP ADDRESS SWAP1 PUSH1 0x1 PUSH1 0x1 PUSH1 0xA0 SHL SUB CALLER SWAP2 AND PUSH2 0x2B47 JUMP JUMPDEST PUSH1 0x1 PUSH1 0x1 PUSH1 0xA0 SHL SUB PUSH1 0x1 SLOAD PUSH1 0x8 SHR AND SWAP1 DUP2 EXTCODESIZE ISZERO PUSH2 0x522 JUMPI DUP9 SWAP2 PUSH1 0x24 DUP4 SWAP3 PUSH1 0x40 MLOAD SWAP5 DUP6 SWAP4 DUP5 SWAP3 PUSH4 0xB6B55F25 PUSH1 0xE0 SHL DUP5 MSTORE PUSH1 0x4 DUP5 ADD MSTORE GAS CALL DUP1 ISZERO PUSH2 0x517 JUMPI SWAP1 DUP9 SWAP2 PUSH2 0x4FF JUMPI JUMPDEST POP PUSH1 0x20 PUSH2 0x3C2 PUSH1 0x40 MLOAD PUSH2 0x363 DUP2 PUSH2 0x20D0 JUMP JUMPDEST PUSH8 0xFFFFFFFFFFFFFFFF DUP6 AND DUP2 MSTORE PUSH1 0x1 DUP4 DUP3 ADD MSTORE PUSH2 0x383 DUP13 PUSH1 0x40 DUP4 ADD PUSH2 0x222C JUMP JUMPDEST PUSH2 0x390 DUP8 PUSH1 0x60 DUP4 ADD PUSH2 0x2238 JUMP JUMPDEST PUSH1 0x1 PUSH1 0x80 DUP3 ADD MSTORE PUSH1 0x1 PUSH1 0x1 PUSH1 0xA0 SHL SUB PUSH1 0x1 SLOAD PUSH1 0x8 SHR AND SWAP1 PUSH1 0x40 MLOAD SWAP12 DUP13 DUP1 SWAP5 DUP2 SWAP4 PUSH3 0xBF4E77 PUSH1 0xE2 SHL DUP4 MSTORE PUSH1 0x4 DUP4 ADD PUSH2 0x225E JUMP JUMPDEST SUB SWAP3 GAS CALL SWAP8 DUP9 ISZERO PUSH2 0x4F2 JUMPI DUP2 SWAP9 PUSH2 0x4AA JUMPI JUMPDEST POP SWAP3 PUSH1 0x20 SWAP9 PUSH32 0x9565CA896F98673A0CB29EBA8400D67EE0868E732AD92006209D426521012228 SWAP6 SWAP4 PUSH2 0x49F SWAP4 PUSH1 0x40 DUP12 SWAP11 SWAP10 SWAP8 PUSH2 0x47E DUP3 MLOAD PUSH2 0x414 DUP2 PUSH2 0x20EC JUMP JUMPDEST CALLER DUP2 MSTORE PUSH1 0x1 PUSH1 0x1 PUSH1 0xA0 SHL SUB DUP14 AND PUSH1 0x20 DUP3 ADD MSTORE PUSH1 0x1 PUSH1 0x1 PUSH1 0xA0 SHL SUB DUP11 AND DUP5 DUP3 ADD MSTORE DUP11 PUSH1 0x60 DUP3 ADD MSTORE DUP6 PUSH1 0x80 DUP3 ADD MSTORE PUSH2 0x44D DUP8 PUSH1 0xA0 DUP4 ADD PUSH2 0x222C JUMP JUMPDEST PUSH2 0x45A DUP9 PUSH1 0xC0 DUP4 ADD PUSH2 0x2238 JUMP JUMPDEST DUP11 PUSH1 0xE0 DUP3 ADD MSTORE TIMESTAMP PUSH2 0x100 DUP3 ADD MSTORE DUP3 PUSH2 0x120 DUP3 ADD MSTORE DUP14 DUP4 MSTORE DUP16 PUSH1 0x8 SWAP1 MSTORE DUP4 DUP4 KECCAK256 PUSH2 0x22BE JUMP JUMPDEST DUP12 DUP2 MSTORE PUSH1 0xB DUP15 MSTORE KECCAK256 PUSH1 0x2 PUSH1 0xFF NOT DUP3 SLOAD AND OR SWAP1 SSTORE PUSH1 0x40 MLOAD SWAP7 DUP8 SWAP7 CALLER SWAP11 DUP9 PUSH2 0x2393 JUMP JUMPDEST SUB SWAP1 LOG3 PUSH1 0x40 MLOAD SWAP1 DUP2 MSTORE RETURN JUMPDEST SWAP2 SWAP5 SWAP3 SWAP8 POP SWAP6 SWAP5 SWAP3 PUSH1 0x20 DUP3 RETURNDATASIZE PUSH1 0x20 GT PUSH2 0x4EA JUMPI JUMPDEST DUP2 PUSH2 0x4CB PUSH1 0x20 SWAP4 DUP4 PUSH2 0x2142 JUMP JUMPDEST DUP2 ADD SUB SLT PUSH2 0x4E5 JUMPI SWAP1 MLOAD SWAP7 SWAP5 SWAP6 SWAP3 SWAP5 SWAP2 SWAP4 SWAP1 SWAP3 PUSH1 0x20 PUSH2 0x3D4 JUMP JUMPDEST PUSH1 0x0 DUP1 REVERT JUMPDEST RETURNDATASIZE SWAP2 POP PUSH2 0x4BE JUMP JUMPDEST POP PUSH1 0x40 MLOAD SWAP1 RETURNDATASIZE SWAP1 DUP3 RETURNDATACOPY RETURNDATASIZE SWAP1 REVERT JUMPDEST PUSH2 0x508 SWAP1 PUSH2 0x20A6 JUMP JUMPDEST PUSH2 0x513 JUMPI DUP7 CODESIZE PUSH2 0x351 JUMP JUMPDEST DUP7 DUP1 REVERT JUMPDEST PUSH1 0x40 MLOAD RETURNDATASIZE DUP11 DUP3 RETURNDATACOPY RETURNDATASIZE SWAP1 REVERT JUMPDEST DUP9 DUP1 REVERT JUMPDEST PUSH2 0x548 SWAP2 POP PUSH1 0x20 RETURNDATASIZE PUSH1 0x20 GT PUSH2 0x54E JUMPI JUMPDEST PUSH2 0x540 DUP2 DUP4 PUSH2 0x2142 JUMP JUMPDEST DUP2 ADD SWAP1 PUSH2 0x2164 JUMP JUMPDEST CODESIZE PUSH2 0x2FA JUMP JUMPDEST POP RETURNDATASIZE PUSH2 0x536 JUMP JUMPDEST PUSH1 0x40 MLOAD RETURNDATASIZE DUP12 DUP3 RETURNDATACOPY RETURNDATASIZE SWAP1 REVERT JUMPDEST SWAP1 SWAP2 POP PUSH1 0x20 DUP2 RETURNDATASIZE PUSH1 0x20 GT PUSH2 0x58D JUMPI JUMPDEST DUP2 PUSH2 0x57C PUSH1 0x20 SWAP4 DUP4 PUSH2 0x2142 JUMP JUMPDEST DUP2 ADD SUB SLT PUSH2 0x4E5 JUMPI MLOAD SWAP1 PUSH1 0x20 PUSH2 0x2CD JUMP JUMPDEST RETURNDATASIZE SWAP2 POP PUSH2 0x56F JUMP JUMPDEST POP CALLVALUE PUSH2 0x1C1 JUMPI PUSH1 0x40 CALLDATASIZE PUSH1 0x3 NOT ADD SLT PUSH2 0x1C1 JUMPI PUSH2 0x5AF PUSH2 0x1FC0 JUMP JUMPDEST PUSH1 0x24 CALLDATALOAD SWAP1 PUSH2 0x5BB PUSH2 0x2BF9 JUMP JUMPDEST PUSH1 0x3 SLOAD DUP3 GT PUSH2 0x5FF JUMPI DUP3 DUP1 DUP1 DUP5 DUP2 SWAP5 DUP3 SWAP1 DUP3 ISZERO PUSH2 0x5F5 JUMPI JUMPDEST PUSH1 0x1 PUSH1 0x1 PUSH1 0xA0 SHL SUB AND SWAP1 CALL ISZERO PUSH2 0x4F2 JUMPI PUSH2 0x5EF SWAP1 PUSH1 0x3 SLOAD PUSH2 0x2AD1 JUMP JUMPDEST PUSH1 0x3 SSTORE DUP1 RETURN JUMPDEST PUSH2 0x8FC SWAP2 POP PUSH2 0x5D3 JUMP JUMPDEST PUSH1 0x64 PUSH1 0x40 MLOAD PUSH3 0x461BCD PUSH1 0xE5 SHL DUP2 MSTORE PUSH1 0x20 PUSH1 0x4 DUP3 ADD MSTORE PUSH1 0x13 PUSH1 0x24 DUP3 ADD MSTORE PUSH32 0x496E73756666696369656E7420616D6F756E7400000000000000000000000000 PUSH1 0x44 DUP3 ADD MSTORE REVERT JUMPDEST POP CALLVALUE PUSH2 0x1C1 JUMPI DUP1 PUSH1 0x3 NOT CALLDATASIZE ADD SLT PUSH2 0x1C1 JUMPI PUSH1 0x20 SWAP1 PUSH1 0x40 MLOAD SWAP1 DUP2 MSTORE RETURN JUMPDEST POP CALLVALUE PUSH2 0x1C1 JUMPI PUSH1 0x40 CALLDATASIZE PUSH1 0x3 NOT ADD SLT PUSH2 0x1C1 JUMPI PUSH1 0x1 PUSH1 0x1 PUSH1 0xA0 SHL SUB PUSH1 0x40 PUSH2 0x683 PUSH2 0x1FD6 JUMP JUMPDEST SWAP3 PUSH1 0x4 CALLDATALOAD DUP2 MSTORE DUP1 PUSH1 0x20 MSTORE KECCAK256 SWAP2 AND PUSH1 0x0 MSTORE PUSH1 0x20 MSTORE PUSH1 0x20 PUSH1 0xFF PUSH1 0x40 PUSH1 0x0 KECCAK256 SLOAD AND PUSH1 0x40 MLOAD SWAP1 ISZERO ISZERO DUP2 MSTORE RETURN JUMPDEST POP CALLVALUE PUSH2 0x1C1 JUMPI PUSH1 0x20 CALLDATASIZE PUSH1 0x3 NOT ADD SLT PUSH2 0x1C1 JUMPI PUSH1 0x4 CALLDATALOAD PUSH2 0x6C8 PUSH2 0x2B11 JUMP JUMPDEST DUP1 DUP3 MSTORE PUSH1 0x7 PUSH1 0x20 MSTORE DUP2 PUSH1 0x40 DUP2 KECCAK256 PUSH1 0x7 DUP2 ADD PUSH2 0x6E7 PUSH1 0xFF DUP3 SLOAD AND ISZERO PUSH2 0x23E6 JUMP JUMPDEST PUSH1 0x1 PUSH1 0x1 PUSH1 0xA0 SHL SUB SWAP2 DUP3 DUP2 SLOAD AND SWAP1 CALLER DUP3 SUB PUSH2 0x79F JUMPI PUSH2 0x712 SWAP2 PUSH1 0x3 DUP6 PUSH1 0x1 DUP5 ADD SLOAD AND SWAP3 ADD SLOAD SWAP2 PUSH2 0x2BA4 JUMP JUMPDEST PUSH1 0x1 PUSH1 0xFF NOT DUP3 SLOAD AND OR SWAP1 SSTORE PUSH1 0x1 SLOAD PUSH1 0x8 SHR AND DUP1 EXTCODESIZE ISZERO PUSH2 0x790 JUMPI DUP2 DUP1 SWAP2 PUSH1 0x24 PUSH1 0x40 MLOAD DUP1 SWAP5 DUP2 SWAP4 PUSH4 0xC4D252F5 PUSH1 0xE0 SHL DUP4 MSTORE DUP9 PUSH1 0x4 DUP5 ADD MSTORE GAS CALL DUP1 ISZERO PUSH2 0x794 JUMPI PUSH2 0x77C JUMPI JUMPDEST POP DUP1 PUSH32 0xA5372CFC0ABF52B270BFC1F8B9AFAC84CB49534155CB8D3A47DECC2DC80E597A SWAP2 LOG2 DUP1 RETURN JUMPDEST PUSH2 0x785 SWAP1 PUSH2 0x20A6 JUMP JUMPDEST PUSH2 0x790 JUMPI DUP2 CODESIZE PUSH2 0x754 JUMP JUMPDEST POP DUP1 REVERT JUMPDEST PUSH1 0x40 MLOAD RETURNDATASIZE DUP5 DUP3 RETURNDATACOPY RETURNDATASIZE SWAP1 REVERT JUMPDEST DUP5 DUP1 REVERT JUMPDEST POP CALLVALUE PUSH2 0x1C1 JUMPI DUP1 PUSH1 0x3 NOT CALLDATASIZE ADD SLT PUSH2 0x1C1 JUMPI PUSH2 0x7BC PUSH2 0x2BF9 JUMP JUMPDEST PUSH2 0x7C4 PUSH2 0x2B11 JUMP JUMPDEST PUSH1 0x1 PUSH1 0xFF NOT DUP2 SLOAD AND OR PUSH1 0x1 SSTORE PUSH32 0x62E78CEA01BEE320CD4E420270B5EA74000D11B0C9F74754EBDBFC544B05A258 PUSH1 0x20 PUSH1 0x40 MLOAD CALLER DUP2 MSTORE LOG1 DUP1 RETURN JUMPDEST POP CALLVALUE PUSH2 0x1C1 JUMPI DUP1 PUSH1 0x3 NOT CALLDATASIZE ADD SLT PUSH2 0x1C1 JUMPI PUSH1 0x20 PUSH1 0x40 MLOAD PUSH32 0xA49807205CE4D355092EF5A8A18F56E8913CF4A201FBE287825B095693C21775 DUP2 MSTORE RETURN JUMPDEST POP PUSH2 0x842 CALLDATASIZE PUSH2 0x2054 JUMP JUMPDEST PUSH2 0x852 SWAP7 SWAP5 SWAP2 SWAP7 SWAP6 SWAP4 SWAP3 SWAP6 PUSH2 0x2B11 JUMP JUMPDEST PUSH1 0x1 PUSH1 0x1 PUSH1 0xA0 SHL SUB SWAP7 DUP8 DUP6 AND SWAP7 PUSH2 0x86B DUP6 ADDRESS CALLER DUP12 PUSH2 0x2B47 JUMP JUMPDEST PUSH2 0x87D PUSH1 0x4 SLOAD PUSH2 0x288 DUP2 CALLVALUE LT ISZERO PUSH2 0x219E JUMP JUMPDEST PUSH1 0x3 SSTORE DUP9 PUSH1 0x1 SLOAD PUSH1 0x8 SHR AND SWAP9 PUSH1 0x40 MLOAD SWAP10 PUSH4 0x127E8E4D PUSH1 0xE0 SHL DUP12 MSTORE PUSH1 0x1 PUSH1 0x4 DUP13 ADD MSTORE PUSH1 0x20 SWAP11 DUP12 DUP2 PUSH1 0x24 DUP2 DUP6 GAS STATICCALL SWAP1 DUP2 ISZERO PUSH2 0xAEE JUMPI DUP13 SWAP1 DUP12 SWAP3 PUSH2 0xAF9 JUMPI JUMPDEST POP PUSH1 0x4 SWAP2 SWAP3 PUSH1 0x40 MLOAD SWAP3 DUP4 DUP1 SWAP3 PUSH4 0x22F0122B PUSH1 0xE2 SHL DUP3 MSTORE GAS STATICCALL SWAP1 DUP2 ISZERO PUSH2 0xAEE JUMPI PUSH2 0x8F3 SWAP2 DUP4 SWAP2 DUP15 DUP14 SWAP3 PUSH2 0xAD1 JUMPI JUMPDEST POP POP ADDRESS SWAP1 DUP6 CALLER SWAP2 AND PUSH2 0x2B47 JUMP JUMPDEST DUP2 PUSH1 0x1 SLOAD PUSH1 0x8 SHR AND SWAP1 DUP2 EXTCODESIZE ISZERO PUSH2 0xACD JUMPI DUP10 SWAP2 PUSH1 0x24 DUP4 SWAP3 PUSH1 0x40 MLOAD SWAP5 DUP6 SWAP4 DUP5 SWAP3 PUSH4 0xB6B55F25 PUSH1 0xE0 SHL DUP5 MSTORE PUSH1 0x4 DUP5 ADD MSTORE GAS CALL DUP1 ISZERO PUSH2 0x555 JUMPI SWAP1 DUP10 SWAP2 PUSH2 0xAB5 JUMPI JUMPDEST POP SWAP1 DUP11 PUSH2 0x98C PUSH1 0x40 MLOAD PUSH2 0x942 DUP2 PUSH2 0x20D0 JUMP JUMPDEST PUSH8 0xFFFFFFFFFFFFFFFF DUP8 AND DUP2 MSTORE PUSH1 0x1 DUP4 DUP3 ADD MSTORE DUP5 PUSH1 0x40 DUP3 ADD MSTORE PUSH1 0x18 PUSH1 0x60 DUP3 ADD MSTORE DUP5 PUSH1 0x80 DUP3 ADD MSTORE DUP4 PUSH1 0x1 SLOAD PUSH1 0x8 SHR AND SWAP1 PUSH1 0x40 MLOAD SWAP13 DUP14 DUP1 SWAP5 DUP2 SWAP4 PUSH3 0xBF4E77 PUSH1 0xE2 SHL DUP4 MSTORE PUSH1 0x4 DUP4 ADD PUSH2 0x225E JUMP JUMPDEST SUB SWAP3 GAS CALL SWAP9 DUP10 ISZERO PUSH2 0x794 JUMPI SWAP1 DUP12 SWAP2 DUP4 SWAP11 PUSH2 0xA72 JUMPI JUMPDEST POP PUSH2 0x49F SWAP5 SWAP3 PUSH2 0xA1A DUP12 SWAP13 PUSH1 0x9 PUSH32 0x881D8B2D13DB5F16A1EB42B207685769FA2B66D31FFB425D3C4CC1C09FD4CD2E SWAP12 SWAP11 SWAP10 SWAP8 SWAP6 DUP15 PUSH1 0x40 SWAP7 DUP8 MLOAD SWAP5 PUSH2 0x9E4 DUP7 PUSH2 0x2109 JUMP JUMPDEST CALLER DUP7 MSTORE DUP4 DUP7 ADD MSTORE DUP13 AND DUP8 DUP6 ADD MSTORE DUP13 PUSH1 0x60 DUP6 ADD MSTORE DUP8 PUSH1 0x80 DUP6 ADD MSTORE TIMESTAMP PUSH1 0xA0 DUP6 ADD MSTORE DUP10 PUSH1 0xC0 DUP6 ADD MSTORE DUP6 PUSH1 0xE0 DUP6 ADD MSTORE DUP6 MSTORE MSTORE DUP4 DUP4 KECCAK256 PUSH2 0x2431 JUMP JUMPDEST PUSH1 0xB DUP14 MSTORE KECCAK256 PUSH1 0x2 PUSH1 0xFF NOT DUP3 SLOAD AND OR SWAP1 SSTORE PUSH1 0x40 MLOAD SWAP6 DUP7 SWAP6 CALLER SWAP10 DUP8 SWAP3 SWAP4 PUSH1 0xA0 SWAP5 PUSH8 0xFFFFFFFFFFFFFFFF SWAP4 SWAP9 SWAP8 SWAP7 SWAP3 PUSH1 0xC0 DUP7 ADD SWAP10 PUSH1 0x1 PUSH1 0x1 PUSH1 0xA0 SHL SUB DUP1 SWAP3 AND DUP8 MSTORE AND PUSH1 0x20 DUP7 ADD MSTORE PUSH1 0x40 DUP6 ADD MSTORE PUSH1 0x60 DUP5 ADD MSTORE AND PUSH1 0x80 DUP3 ADD MSTORE ADD MSTORE JUMP JUMPDEST DUP3 DUP2 SWAP7 SWAP5 SWAP10 SWAP9 SWAP8 SWAP6 SWAP4 SWAP3 SWAP12 POP RETURNDATASIZE DUP4 GT PUSH2 0xAAE JUMPI JUMPDEST PUSH2 0xA90 DUP2 DUP4 PUSH2 0x2142 JUMP JUMPDEST DUP2 ADD SUB SLT PUSH2 0x4E5 JUMPI SWAP3 MLOAD SWAP8 SWAP5 SWAP6 SWAP4 SWAP5 SWAP2 SWAP4 SWAP1 SWAP3 SWAP2 DUP11 SWAP1 PUSH2 0x49F PUSH2 0x9A1 JUMP JUMPDEST POP RETURNDATASIZE PUSH2 0xA86 JUMP JUMPDEST PUSH2 0xABE SWAP1 PUSH2 0x20A6 JUMP JUMPDEST PUSH2 0xAC9 JUMPI DUP8 CODESIZE PUSH2 0x930 JUMP JUMPDEST DUP8 DUP1 REVERT JUMPDEST DUP10 DUP1 REVERT JUMPDEST PUSH2 0xAE7 SWAP3 POP DUP1 RETURNDATASIZE LT PUSH2 0x54E JUMPI PUSH2 0x540 DUP2 DUP4 PUSH2 0x2142 JUMP JUMPDEST CODESIZE DUP15 PUSH2 0x8E6 JUMP JUMPDEST PUSH1 0x40 MLOAD RETURNDATASIZE DUP13 DUP3 RETURNDATACOPY RETURNDATASIZE SWAP1 REVERT JUMPDEST DUP1 SWAP3 POP DUP2 RETURNDATASIZE DUP4 GT PUSH2 0xB20 JUMPI JUMPDEST PUSH2 0xB0F DUP2 DUP4 PUSH2 0x2142 JUMP JUMPDEST DUP2 ADD SUB SLT PUSH2 0x4E5 JUMPI MLOAD DUP12 PUSH1 0x4 PUSH2 0x8B9 JUMP JUMPDEST POP RETURNDATASIZE PUSH2 0xB05 JUMP JUMPDEST POP CALLVALUE PUSH2 0x1C1 JUMPI DUP1 PUSH1 0x3 NOT CALLDATASIZE ADD SLT PUSH2 0x1C1 JUMPI PUSH1 0x20 PUSH1 0xFF PUSH1 0x1 SLOAD AND PUSH1 0x40 MLOAD SWAP1 ISZERO ISZERO DUP2 MSTORE RETURN JUMPDEST PUSH1 0x20 PUSH2 0xB6C PUSH2 0xB58 CALLDATASIZE PUSH2 0x2054 JUMP JUMPDEST SWAP5 PUSH2 0xB67 SWAP5 SWAP2 SWAP5 SWAP4 SWAP3 SWAP4 PUSH2 0x2B11 JUMP JUMPDEST PUSH2 0x2602 JUMP JUMPDEST PUSH1 0x40 MLOAD SWAP1 DUP2 MSTORE RETURN JUMPDEST POP CALLVALUE PUSH2 0x1C1 JUMPI PUSH1 0x20 CALLDATASIZE PUSH1 0x3 NOT ADD SLT PUSH2 0x1C1 JUMPI PUSH1 0x4 CALLDATALOAD PUSH2 0xB91 PUSH2 0x2B11 JUMP JUMPDEST DUP1 DUP3 MSTORE PUSH1 0xA PUSH1 0x20 MSTORE PUSH1 0x40 DUP3 KECCAK256 PUSH1 0x8 DUP2 ADD SWAP1 PUSH1 0xFF DUP3 SLOAD AND PUSH2 0xC56 JUMPI DUP4 SWAP2 PUSH1 0x1 PUSH1 0x1 PUSH1 0xA0 SHL SUB SWAP2 DUP3 DUP2 SLOAD AND SWAP1 CALLER DUP3 SUB PUSH2 0x79F JUMPI PUSH2 0xBD8 SWAP2 PUSH1 0x6 DUP6 PUSH1 0x2 DUP5 ADD SLOAD AND SWAP3 ADD SLOAD SWAP2 PUSH2 0x2BA4 JUMP JUMPDEST PUSH1 0x1 PUSH1 0xFF NOT DUP3 SLOAD AND OR SWAP1 SSTORE PUSH1 0x1 SLOAD PUSH1 0x8 SHR AND DUP1 EXTCODESIZE ISZERO PUSH2 0x790 JUMPI DUP2 DUP1 SWAP2 PUSH1 0x24 PUSH1 0x40 MLOAD DUP1 SWAP5 DUP2 SWAP4 PUSH4 0xC4D252F5 PUSH1 0xE0 SHL DUP4 MSTORE DUP9 PUSH1 0x4 DUP5 ADD MSTORE GAS CALL DUP1 ISZERO PUSH2 0x794 JUMPI PUSH2 0xC42 JUMPI JUMPDEST POP DUP1 PUSH32 0xC848505D086791E836AF5BD9381A53F86E3621DAA7C04DCA2C00E4F9A4939E7 SWAP2 LOG2 DUP1 RETURN JUMPDEST PUSH2 0xC4B SWAP1 PUSH2 0x20A6 JUMP JUMPDEST PUSH2 0x790 JUMPI DUP2 CODESIZE PUSH2 0xC1A JUMP JUMPDEST PUSH1 0x64 PUSH1 0x40 MLOAD PUSH3 0x461BCD PUSH1 0xE5 SHL DUP2 MSTORE PUSH1 0x20 PUSH1 0x4 DUP3 ADD MSTORE PUSH1 0x1B PUSH1 0x24 DUP3 ADD MSTORE PUSH32 0x5472616E736665724F726465722077617320636F6D706C657465640000000000 PUSH1 0x44 DUP3 ADD MSTORE REVERT JUMPDEST POP CALLVALUE PUSH2 0x1C1 JUMPI PUSH1 0x20 CALLDATASIZE PUSH1 0x3 NOT ADD SLT PUSH2 0x1C1 JUMPI PUSH1 0x4 CALLDATALOAD PUSH2 0xCB7 PUSH2 0x2B11 JUMP JUMPDEST DUP1 DUP3 MSTORE PUSH1 0x9 PUSH1 0x20 MSTORE DUP2 PUSH1 0x40 DUP2 KECCAK256 PUSH1 0x7 DUP2 ADD PUSH2 0xCD6 PUSH1 0xFF DUP3 SLOAD AND ISZERO PUSH2 0x23E6 JUMP JUMPDEST PUSH1 0x1 PUSH1 0x1 PUSH1 0xA0 SHL SUB SWAP2 DUP3 DUP2 SLOAD AND SWAP1 CALLER DUP3 SUB PUSH2 0x79F JUMPI PUSH2 0xD01 SWAP2 PUSH1 0x3 DUP6 PUSH1 0x1 DUP5 ADD SLOAD AND SWAP3 ADD SLOAD SWAP2 PUSH2 0x2BA4 JUMP JUMPDEST PUSH1 0x1 PUSH1 0xFF NOT DUP3 SLOAD AND OR SWAP1 SSTORE PUSH1 0x1 SLOAD PUSH1 0x8 SHR AND DUP1 EXTCODESIZE ISZERO PUSH2 0x790 JUMPI DUP2 DUP1 SWAP2 PUSH1 0x24 PUSH1 0x40 MLOAD DUP1 SWAP5 DUP2 SWAP4 PUSH4 0xC4D252F5 PUSH1 0xE0 SHL DUP4 MSTORE DUP9 PUSH1 0x4 DUP5 ADD MSTORE GAS CALL DUP1 ISZERO PUSH2 0x794 JUMPI PUSH2 0xD6B JUMPI JUMPDEST POP DUP1 PUSH32 0xA90C1EA1F8BF26CF5F70D9B0FD7716E41F4C34E97AEF5AB1ABA7088FDBF766C7 SWAP2 LOG2 DUP1 RETURN JUMPDEST PUSH2 0xD74 SWAP1 PUSH2 0x20A6 JUMP JUMPDEST PUSH2 0x790 JUMPI DUP2 CODESIZE PUSH2 0xD43 JUMP JUMPDEST POP CALLVALUE PUSH2 0x1C1 JUMPI PUSH1 0x20 CALLDATASIZE PUSH1 0x3 NOT ADD SLT PUSH2 0x1C1 JUMPI PUSH2 0xD99 PUSH2 0x2BF9 JUMP JUMPDEST DUP1 PUSH1 0x1 PUSH1 0x1 PUSH1 0xA0 SHL SUB PUSH1 0x1 SLOAD PUSH1 0x8 SHR AND DUP1 EXTCODESIZE ISZERO PUSH2 0xDED JUMPI DUP2 DUP1 SWAP2 PUSH1 0x24 PUSH1 0x40 MLOAD DUP1 SWAP5 DUP2 SWAP4 PUSH4 0xB6B55F25 PUSH1 0xE0 SHL DUP4 MSTORE PUSH1 0x4 CALLDATALOAD PUSH1 0x4 DUP5 ADD MSTORE GAS CALL DUP1 ISZERO PUSH2 0x794 JUMPI PUSH2 0xDDD JUMPI POP RETURN JUMPDEST PUSH2 0xDE6 SWAP1 PUSH2 0x20A6 JUMP JUMPDEST PUSH2 0x1C1 JUMPI DUP1 RETURN JUMPDEST POP REVERT JUMPDEST POP CALLVALUE PUSH2 0x1C1 JUMPI PUSH1 0x40 CALLDATASIZE PUSH1 0x3 NOT ADD SLT PUSH2 0x1C1 JUMPI PUSH2 0xE0A PUSH2 0x1FD6 JUMP JUMPDEST CALLER PUSH1 0x1 PUSH1 0x1 PUSH1 0xA0 SHL SUB DUP3 AND SUB PUSH2 0xE26 JUMPI PUSH2 0x245 SWAP1 PUSH1 0x4 CALLDATALOAD PUSH2 0x3030 JUMP JUMPDEST PUSH1 0x4 PUSH1 0x40 MLOAD PUSH32 0x6697B23200000000000000000000000000000000000000000000000000000000 DUP2 MSTORE REVERT JUMPDEST POP CALLVALUE PUSH2 0x1C1 JUMPI PUSH1 0x40 CALLDATASIZE PUSH1 0x3 NOT ADD SLT PUSH2 0x1C1 JUMPI CALLER PUSH1 0x1 PUSH1 0x1 PUSH1 0xA0 SHL SUB PUSH32 0x0 AND SUB PUSH2 0x1837 JUMPI PUSH1 0x4 CALLDATALOAD DUP2 MSTORE PUSH1 0xB PUSH1 0x20 MSTORE PUSH1 0xFF PUSH1 0x40 DUP3 KECCAK256 SLOAD AND PUSH1 0x4 DUP2 LT ISZERO PUSH2 0x1823 JUMPI DUP1 ISZERO PUSH2 0x1655 JUMPI JUMPDEST PUSH1 0x1 DUP2 EQ PUSH2 0x147C JUMPI JUMPDEST PUSH1 0x2 DUP2 EQ PUSH2 0x11C4 JUMPI JUMPDEST PUSH1 0x3 EQ PUSH2 0x1041 JUMPI JUMPDEST PUSH1 0x1 PUSH1 0x1 PUSH1 0xA0 SHL SUB PUSH1 0x1 SLOAD PUSH1 0x8 SHR AND SWAP1 PUSH1 0x40 MLOAD SWAP2 PUSH4 0x127E8E4D PUSH1 0xE0 SHL DUP4 MSTORE PUSH1 0x1 PUSH1 0x4 DUP5 ADD MSTORE PUSH1 0x20 DUP4 PUSH1 0x24 DUP2 DUP5 GAS STATICCALL SWAP3 DUP4 ISZERO PUSH2 0x794 JUMPI DUP3 SWAP4 PUSH2 0x100D JUMPI JUMPDEST POP PUSH1 0x40 MLOAD PUSH32 0x70A0823100000000000000000000000000000000000000000000000000000000 DUP2 MSTORE ADDRESS PUSH1 0x4 DUP3 ADD MSTORE PUSH1 0x20 DUP2 PUSH1 0x24 DUP2 DUP6 GAS STATICCALL SWAP1 DUP2 ISZERO PUSH2 0x1002 JUMPI SWAP1 DUP5 SWAP2 DUP5 SWAP2 PUSH2 0xFCD JUMPI JUMPDEST POP LT PUSH2 0xF5B JUMPI POP DUP1 RETURN JUMPDEST PUSH1 0x5 DUP4 MUL SWAP3 DUP1 DUP5 DIV PUSH1 0x5 EQ SWAP1 ISZERO OR ISZERO PUSH2 0xFB9 JUMPI DUP2 SWAP3 DUP2 EXTCODESIZE ISZERO PUSH2 0xFB5 JUMPI DUP3 SWAP2 PUSH1 0x24 DUP4 SWAP3 PUSH1 0x40 MLOAD SWAP5 DUP6 SWAP4 DUP5 SWAP3 PUSH4 0xB6B55F25 PUSH1 0xE0 SHL DUP5 MSTORE PUSH1 0x4 DUP5 ADD MSTORE GAS CALL DUP1 ISZERO PUSH2 0x794 JUMPI PUSH2 0xFA4 JUMPI POP DUP1 RETURN JUMPDEST PUSH2 0xFAD SWAP1 PUSH2 0x20A6 JUMP JUMPDEST PUSH2 0x1C1 JUMPI DUP1 DUP1 RETURN JUMPDEST POP POP REVERT JUMPDEST PUSH1 0x24 DUP3 PUSH4 0x4E487B71 PUSH1 0xE0 SHL DUP2 MSTORE PUSH1 0x11 PUSH1 0x4 MSTORE REVERT JUMPDEST SWAP2 POP POP PUSH1 0x20 DUP2 RETURNDATASIZE PUSH1 0x20 GT PUSH2 0xFFA JUMPI JUMPDEST DUP2 PUSH2 0xFE9 PUSH1 0x20 SWAP4 DUP4 PUSH2 0x2142 JUMP JUMPDEST DUP2 ADD SUB SLT PUSH2 0x4E5 JUMPI DUP4 SWAP1 MLOAD CODESIZE PUSH2 0xF51 JUMP JUMPDEST RETURNDATASIZE SWAP2 POP PUSH2 0xFDC JUMP JUMPDEST PUSH1 0x40 MLOAD RETURNDATASIZE DUP6 DUP3 RETURNDATACOPY RETURNDATASIZE SWAP1 REVERT JUMPDEST SWAP1 SWAP3 POP PUSH1 0x20 DUP2 RETURNDATASIZE PUSH1 0x20 GT PUSH2 0x1039 JUMPI JUMPDEST DUP2 PUSH2 0x1029 PUSH1 0x20 SWAP4 DUP4 PUSH2 0x2142 JUMP JUMPDEST DUP2 ADD SUB SLT PUSH2 0x4E5 JUMPI MLOAD SWAP2 CODESIZE PUSH2 0xF0A JUMP JUMPDEST RETURNDATASIZE SWAP2 POP PUSH2 0x101C JUMP JUMPDEST PUSH1 0x4 CALLDATALOAD DUP2 MSTORE PUSH1 0xA PUSH1 0x20 MSTORE PUSH1 0x40 DUP2 KECCAK256 PUSH1 0x8 DUP2 ADD PUSH1 0xFF DUP2 SLOAD AND PUSH2 0x1180 JUMPI PUSH2 0x106F PUSH1 0x3 DUP4 ADD SLOAD PUSH1 0x4 DUP5 ADD SLOAD SWAP1 PUSH2 0x2AF1 JUMP JUMPDEST PUSH1 0x2 DUP4 ADD SWAP1 PUSH1 0x6 PUSH1 0x1 PUSH1 0x1 PUSH1 0xA0 SHL SUB DUP4 SLOAD AND SWAP5 PUSH2 0x109C DUP4 PUSH1 0x1 DUP4 ADD SWAP8 PUSH1 0x1 PUSH1 0x1 PUSH1 0xA0 SHL SUB DUP10 SLOAD AND SWAP1 PUSH2 0x2BA4 JUMP JUMPDEST ADD SWAP4 PUSH2 0x10A9 DUP3 DUP7 SLOAD PUSH2 0x2AD1 JUMP JUMPDEST DUP1 SWAP3 DUP2 DUP8 SSTORE GT PUSH2 0x10EC JUMPI JUMPDEST POP POP POP POP SLOAD PUSH1 0x40 MLOAD SWAP1 DUP2 MSTORE PUSH32 0x54B285B8A6AB0D6F347202CA2858B0846DD6FB4E2970D757469805726C5ADA92 PUSH1 0x20 PUSH1 0x4 CALLDATALOAD SWAP3 LOG2 PUSH2 0xECE JUMP JUMPDEST DUP2 PUSH2 0x115D JUMPI JUMPDEST POP POP POP PUSH1 0x1 PUSH1 0xFF NOT DUP3 SLOAD AND OR SWAP1 SSTORE DUP2 PUSH1 0x1 PUSH1 0x1 PUSH1 0xA0 SHL SUB PUSH1 0x1 SLOAD PUSH1 0x8 SHR AND DUP1 EXTCODESIZE ISZERO PUSH2 0x790 JUMPI DUP2 DUP1 SWAP2 PUSH1 0x24 PUSH1 0x40 MLOAD DUP1 SWAP5 DUP2 SWAP4 PUSH4 0xC4D252F5 PUSH1 0xE0 SHL DUP4 MSTORE PUSH1 0x4 CALLDATALOAD PUSH1 0x4 DUP5 ADD MSTORE GAS CALL DUP1 ISZERO PUSH2 0x794 JUMPI PUSH2 0x1149 JUMPI JUMPDEST DUP1 DUP1 PUSH2 0x10B4 JUMP JUMPDEST PUSH2 0x1152 SWAP1 PUSH2 0x20A6 JUMP JUMPDEST PUSH2 0x790 JUMPI DUP2 CODESIZE PUSH2 0x1142 JUMP JUMPDEST PUSH1 0x1 PUSH1 0x1 PUSH1 0xA0 SHL SUB DUP1 PUSH2 0x1175 SWAP5 SLOAD AND SWAP2 SLOAD AND SWAP1 PUSH2 0x2BA4 JUMP JUMPDEST DUP3 DUP3 SSTORE CODESIZE DUP1 DUP1 PUSH2 0x10F2 JUMP JUMPDEST PUSH1 0x64 PUSH1 0x40 MLOAD PUSH3 0x461BCD PUSH1 0xE5 SHL DUP2 MSTORE PUSH1 0x20 PUSH1 0x4 DUP3 ADD MSTORE PUSH1 0x20 PUSH1 0x24 DUP3 ADD MSTORE PUSH32 0x5472616E736665724F7264657220686173206265656E20636F6D706C65746564 PUSH1 0x44 DUP3 ADD MSTORE REVERT JUMPDEST PUSH1 0x4 CALLDATALOAD DUP3 MSTORE PUSH1 0x8 PUSH1 0x20 MSTORE PUSH1 0x40 DUP3 KECCAK256 SWAP1 PUSH2 0x11E4 PUSH1 0xFF PUSH1 0x8 DUP5 ADD SLOAD AND ISZERO PUSH2 0x3186 JUMP JUMPDEST PUSH2 0x11F7 PUSH1 0x3 DUP4 ADD SLOAD PUSH1 0x4 DUP5 ADD SLOAD SWAP1 PUSH2 0x2AF1 JUMP JUMPDEST SWAP2 PUSH1 0x40 MLOAD PUSH2 0x1204 DUP2 PUSH2 0x2126 JUMP JUMPDEST PUSH1 0x2 DUP2 MSTORE PUSH1 0x40 CALLDATASIZE PUSH1 0x20 DUP4 ADD CALLDATACOPY PUSH2 0x1286 PUSH1 0x20 DUP6 PUSH1 0x1 PUSH1 0x1 PUSH1 0xA0 SHL SUB PUSH1 0x1 DUP7 ADD SLOAD AND DUP1 PUSH2 0x122E DUP7 PUSH2 0x24C6 JUMP JUMPDEST MSTORE PUSH1 0x1 PUSH1 0x1 PUSH1 0xA0 SHL SUB PUSH1 0x2 DUP8 ADD SLOAD AND PUSH2 0x1246 DUP7 PUSH2 0x24E9 JUMP JUMPDEST MSTORE PUSH1 0x1 PUSH1 0x1 PUSH1 0xA0 SHL SUB PUSH1 0x2 SLOAD AND DUP10 PUSH1 0x40 MLOAD DUP1 SWAP7 DUP2 SWAP6 DUP3 SWAP5 PUSH4 0x95EA7B3 PUSH1 0xE0 SHL DUP5 MSTORE PUSH1 0x4 DUP5 ADD PUSH1 0x20 SWAP1 SWAP4 SWAP3 SWAP2 SWAP4 PUSH1 0x1 PUSH1 0x1 PUSH1 0xA0 SHL SUB PUSH1 0x40 DUP3 ADD SWAP6 AND DUP2 MSTORE ADD MSTORE JUMP JUMPDEST SUB SWAP3 GAS CALL DUP1 ISZERO PUSH2 0x1471 JUMPI PUSH2 0x1442 JUMPI JUMPDEST POP PUSH1 0x1 PUSH1 0x1 PUSH1 0xA0 SHL SUB PUSH1 0x2 SLOAD AND PUSH1 0x1 PUSH1 0x1 PUSH1 0xA0 SHL SUB DUP4 SLOAD AND SWAP2 PUSH1 0xA TIMESTAMP ADD TIMESTAMP GT PUSH2 0x142E JUMPI DUP7 SWAP2 PUSH2 0x12EF SWAP2 DUP4 PUSH1 0x40 MLOAD DUP1 SWAP7 DUP2 SWAP6 DUP3 SWAP5 PUSH4 0x38ED1739 PUSH1 0xE0 SHL DUP5 MSTORE DUP13 PUSH1 0x4 DUP6 ADD MSTORE DUP5 PUSH1 0x24 DUP6 ADD MSTORE PUSH1 0xA0 PUSH1 0x44 DUP6 ADD MSTORE PUSH1 0xA4 DUP5 ADD SWAP1 PUSH2 0x258D JUMP JUMPDEST SWAP1 PUSH1 0x64 DUP4 ADD MSTORE PUSH1 0xA TIMESTAMP ADD PUSH1 0x84 DUP4 ADD MSTORE SUB SWAP3 GAS CALL DUP1 ISZERO PUSH2 0x1423 JUMPI PUSH2 0x1401 JUMPI JUMPDEST POP PUSH1 0x6 DUP2 ADD SWAP3 PUSH2 0x131E DUP2 DUP6 SLOAD PUSH2 0x2AD1 JUMP JUMPDEST DUP1 SWAP2 DUP2 DUP7 SSTORE GT PUSH2 0x1364 JUMPI JUMPDEST POP POP PUSH1 0x3 SWAP2 SLOAD PUSH1 0x40 MLOAD SWAP1 DUP2 MSTORE PUSH32 0x48BA250AE62C1335C72D7F362E2C3D651B0E9BCD3E38326DBAC1E52D0562834C PUSH1 0x20 PUSH1 0x4 CALLDATALOAD SWAP3 LOG2 SWAP1 POP PUSH2 0xEC6 JUMP JUMPDEST DUP1 PUSH2 0x13D5 JUMPI JUMPDEST POP PUSH1 0x8 PUSH1 0x1 PUSH1 0xFF NOT DUP3 DUP5 ADD SLOAD AND OR SWAP2 ADD SSTORE DUP3 PUSH1 0x1 PUSH1 0x1 PUSH1 0xA0 SHL SUB PUSH1 0x1 SLOAD PUSH1 0x8 SHR AND DUP1 EXTCODESIZE ISZERO PUSH2 0x790 JUMPI DUP2 DUP1 SWAP2 PUSH1 0x24 PUSH1 0x40 MLOAD DUP1 SWAP5 DUP2 SWAP4 PUSH4 0xC4D252F5 PUSH1 0xE0 SHL DUP4 MSTORE PUSH1 0x4 CALLDATALOAD PUSH1 0x4 DUP5 ADD MSTORE GAS CALL DUP1 ISZERO PUSH2 0x794 JUMPI ISZERO PUSH2 0x1329 JUMPI PUSH2 0x13C6 SWAP1 PUSH2 0x20A6 JUMP JUMPDEST PUSH2 0x13D1 JUMPI DUP3 CODESIZE PUSH2 0x1329 JUMP JUMPDEST DUP3 DUP1 REVERT JUMPDEST PUSH2 0x13F8 SWAP1 PUSH1 0x1 PUSH1 0x1 PUSH1 0xA0 SHL SUB PUSH1 0x1 DUP5 ADD SLOAD AND PUSH1 0x1 PUSH1 0x1 PUSH1 0xA0 SHL SUB DUP5 SLOAD AND SWAP1 PUSH2 0x2BA4 JUMP JUMPDEST DUP4 DUP4 SSTORE CODESIZE PUSH2 0x136A JUMP JUMPDEST PUSH2 0x141C SWAP1 RETURNDATASIZE DUP1 DUP8 DUP4 RETURNDATACOPY PUSH2 0x1414 DUP2 DUP4 PUSH2 0x2142 JUMP JUMPDEST DUP2 ADD SWAP1 PUSH2 0x2511 JUMP JUMPDEST POP CODESIZE PUSH2 0x130D JUMP JUMPDEST PUSH1 0x40 MLOAD RETURNDATASIZE DUP8 DUP3 RETURNDATACOPY RETURNDATASIZE SWAP1 REVERT JUMPDEST PUSH1 0x24 DUP8 PUSH4 0x4E487B71 PUSH1 0xE0 SHL DUP2 MSTORE PUSH1 0x11 PUSH1 0x4 MSTORE REVERT JUMPDEST PUSH2 0x1463 SWAP1 PUSH1 0x20 RETURNDATASIZE PUSH1 0x20 GT PUSH2 0x146A JUMPI JUMPDEST PUSH2 0x145B DUP2 DUP4 PUSH2 0x2142 JUMP JUMPDEST DUP2 ADD SWAP1 PUSH2 0x24F9 JUMP JUMPDEST POP CODESIZE PUSH2 0x1295 JUMP JUMPDEST POP RETURNDATASIZE PUSH2 0x1451 JUMP JUMPDEST PUSH1 0x40 MLOAD RETURNDATASIZE DUP9 DUP3 RETURNDATACOPY RETURNDATASIZE SWAP1 REVERT JUMPDEST PUSH1 0x4 CALLDATALOAD DUP3 MSTORE PUSH1 0x9 PUSH1 0x20 MSTORE PUSH1 0x40 DUP3 KECCAK256 PUSH1 0x7 DUP2 ADD SWAP1 PUSH2 0x149D PUSH1 0xFF DUP4 SLOAD AND ISZERO PUSH2 0x3186 JUMP JUMPDEST DUP4 PUSH1 0x40 MLOAD PUSH2 0x14AA DUP2 PUSH2 0x2126 JUMP JUMPDEST PUSH1 0x2 DUP2 MSTORE PUSH1 0x40 CALLDATASIZE PUSH1 0x20 DUP4 ADD CALLDATACOPY PUSH1 0x1 PUSH1 0x1 PUSH1 0xA0 SHL SUB PUSH1 0x1 DUP5 ADD SLOAD AND DUP1 PUSH2 0x14CE DUP4 PUSH2 0x24C6 JUMP JUMPDEST MSTORE PUSH1 0x1 PUSH1 0x1 PUSH1 0xA0 SHL SUB PUSH1 0x2 DUP6 ADD SLOAD AND PUSH2 0x14E6 DUP4 PUSH2 0x24E9 JUMP JUMPDEST MSTORE PUSH1 0x2 SLOAD PUSH1 0x3 DUP6 ADD DUP1 SLOAD PUSH1 0x40 MLOAD PUSH4 0x95EA7B3 PUSH1 0xE0 SHL DUP2 MSTORE PUSH1 0x1 PUSH1 0x1 PUSH1 0xA0 SHL SUB SWAP1 SWAP4 AND PUSH1 0x4 DUP5 ADD MSTORE PUSH1 0x24 DUP4 ADD MSTORE SWAP2 PUSH1 0x20 SWAP1 DUP3 SWAP1 PUSH1 0x44 SWAP1 DUP3 SWAP1 DUP9 SWAP1 GAS CALL DUP1 ISZERO PUSH2 0x162B JUMPI PUSH2 0x1636 JUMPI JUMPDEST POP PUSH1 0x1 PUSH1 0x1 PUSH1 0xA0 SHL SUB PUSH1 0x2 SLOAD AND SWAP1 SLOAD DUP4 PUSH1 0x4 DUP7 ADD SLOAD SWAP2 PUSH2 0x1572 PUSH1 0x6 PUSH1 0x1 PUSH1 0x1 PUSH1 0xA0 SHL SUB DUP10 SLOAD AND SWAP9 ADD SLOAD PUSH1 0x40 MLOAD SWAP9 DUP10 SWAP8 DUP9 SWAP7 DUP8 SWAP6 PUSH4 0x38ED1739 PUSH1 0xE0 SHL DUP8 MSTORE PUSH1 0x4 DUP8 ADD PUSH2 0x25CA JUMP JUMPDEST SUB SWAP3 GAS CALL DUP1 ISZERO PUSH2 0x162B JUMPI PUSH2 0x1611 JUMPI JUMPDEST POP PUSH1 0x1 PUSH1 0xFF NOT DUP3 SLOAD AND OR SWAP1 SSTORE DUP2 PUSH1 0x1 PUSH1 0x1 PUSH1 0xA0 SHL SUB PUSH1 0x1 SLOAD PUSH1 0x8 SHR AND DUP1 EXTCODESIZE ISZERO PUSH2 0x790 JUMPI DUP2 DUP1 SWAP2 PUSH1 0x24 PUSH1 0x40 MLOAD DUP1 SWAP5 DUP2 SWAP4 PUSH4 0xC4D252F5 PUSH1 0xE0 SHL DUP4 MSTORE PUSH1 0x4 CALLDATALOAD PUSH1 0x4 DUP5 ADD MSTORE GAS CALL DUP1 ISZERO PUSH2 0x794 JUMPI PUSH2 0x15FD JUMPI JUMPDEST POP POP PUSH1 0x4 CALLDATALOAD PUSH32 0x9FB1132030BBDB5134B7C78B7FFF2A49745433ACFA0AAE4A4FB481813BB8D87C DUP4 DUP1 LOG2 PUSH2 0xEBD JUMP JUMPDEST PUSH2 0x1606 SWAP1 PUSH2 0x20A6 JUMP JUMPDEST PUSH2 0x790 JUMPI DUP2 CODESIZE PUSH2 0x15CF JUMP JUMPDEST PUSH2 0x1624 SWAP1 RETURNDATASIZE DUP1 DUP7 DUP4 RETURNDATACOPY PUSH2 0x1414 DUP2 DUP4 PUSH2 0x2142 JUMP JUMPDEST POP CODESIZE PUSH2 0x1581 JUMP JUMPDEST PUSH1 0x40 MLOAD RETURNDATASIZE DUP7 DUP3 RETURNDATACOPY RETURNDATASIZE SWAP1 REVERT JUMPDEST PUSH2 0x164E SWAP1 PUSH1 0x20 RETURNDATASIZE PUSH1 0x20 GT PUSH2 0x146A JUMPI PUSH2 0x145B DUP2 DUP4 PUSH2 0x2142 JUMP JUMPDEST POP CODESIZE PUSH2 0x152C JUMP JUMPDEST PUSH1 0x4 CALLDATALOAD DUP3 MSTORE PUSH1 0x7 PUSH1 0x20 MSTORE PUSH1 0x40 DUP3 KECCAK256 PUSH1 0x7 DUP2 ADD SWAP1 PUSH2 0x1676 PUSH1 0xFF DUP4 SLOAD AND ISZERO PUSH2 0x3186 JUMP JUMPDEST DUP4 PUSH1 0x40 MLOAD PUSH2 0x1683 DUP2 PUSH2 0x2126 JUMP JUMPDEST PUSH1 0x2 DUP2 MSTORE PUSH1 0x40 CALLDATASIZE PUSH1 0x20 DUP4 ADD CALLDATACOPY PUSH1 0x1 PUSH1 0x1 PUSH1 0xA0 SHL SUB PUSH1 0x1 DUP5 ADD SLOAD AND DUP1 PUSH2 0x16A7 DUP4 PUSH2 0x24C6 JUMP JUMPDEST MSTORE PUSH1 0x1 PUSH1 0x1 PUSH1 0xA0 SHL SUB PUSH1 0x2 DUP6 ADD SLOAD AND PUSH2 0x16BF DUP4 PUSH2 0x24E9 JUMP JUMPDEST MSTORE PUSH1 0x2 SLOAD PUSH1 0x3 DUP6 ADD DUP1 SLOAD PUSH1 0x40 MLOAD PUSH4 0x95EA7B3 PUSH1 0xE0 SHL DUP2 MSTORE PUSH1 0x1 PUSH1 0x1 PUSH1 0xA0 SHL SUB SWAP1 SWAP4 AND PUSH1 0x4 DUP5 ADD MSTORE PUSH1 0x24 DUP4 ADD MSTORE SWAP2 PUSH1 0x20 SWAP1 DUP3 SWAP1 PUSH1 0x44 SWAP1 DUP3 SWAP1 DUP9 SWAP1 GAS CALL DUP1 ISZERO PUSH2 0x162B JUMPI PUSH2 0x1804 JUMPI JUMPDEST POP PUSH1 0x1 PUSH1 0x1 PUSH1 0xA0 SHL SUB PUSH1 0x2 SLOAD AND SWAP1 SLOAD DUP4 PUSH1 0x4 DUP7 ADD SLOAD SWAP2 PUSH2 0x174B PUSH1 0x6 PUSH1 0x1 PUSH1 0x1 PUSH1 0xA0 SHL SUB DUP10 SLOAD AND SWAP9 ADD SLOAD PUSH1 0x40 MLOAD SWAP9 DUP10 SWAP8 DUP9 SWAP7 DUP8 SWAP6 PUSH4 0x38ED1739 PUSH1 0xE0 SHL DUP8 MSTORE PUSH1 0x4 DUP8 ADD PUSH2 0x25CA JUMP JUMPDEST SUB SWAP3 GAS CALL DUP1 ISZERO PUSH2 0x162B JUMPI PUSH2 0x17EA JUMPI JUMPDEST POP PUSH1 0x1 PUSH1 0xFF NOT DUP3 SLOAD AND OR SWAP1 SSTORE DUP2 PUSH1 0x1 PUSH1 0x1 PUSH1 0xA0 SHL SUB PUSH1 0x1 SLOAD PUSH1 0x8 SHR AND DUP1 EXTCODESIZE ISZERO PUSH2 0x790 JUMPI DUP2 DUP1 SWAP2 PUSH1 0x24 PUSH1 0x40 MLOAD DUP1 SWAP5 DUP2 SWAP4 PUSH4 0xC4D252F5 PUSH1 0xE0 SHL DUP4 MSTORE PUSH1 0x4 CALLDATALOAD PUSH1 0x4 DUP5 ADD MSTORE GAS CALL DUP1 ISZERO PUSH2 0x794 JUMPI PUSH2 0x17D6 JUMPI JUMPDEST POP POP PUSH1 0x4 CALLDATALOAD PUSH32 0x2248D3A7EF2C2079B1FDD5AE3DE854C74F65A50086908F1F30435EBC99812A12 DUP4 DUP1 LOG2 PUSH2 0xEB4 JUMP JUMPDEST PUSH2 0x17DF SWAP1 PUSH2 0x20A6 JUMP JUMPDEST PUSH2 0x790 JUMPI DUP2 CODESIZE PUSH2 0x17A8 JUMP JUMPDEST PUSH2 0x17FD SWAP1 RETURNDATASIZE DUP1 DUP7 DUP4 RETURNDATACOPY PUSH2 0x1414 DUP2 DUP4 PUSH2 0x2142 JUMP JUMPDEST POP CODESIZE PUSH2 0x175A JUMP JUMPDEST PUSH2 0x181C SWAP1 PUSH1 0x20 RETURNDATASIZE PUSH1 0x20 GT PUSH2 0x146A JUMPI PUSH2 0x145B DUP2 DUP4 PUSH2 0x2142 JUMP JUMPDEST POP CODESIZE PUSH2 0x1705 JUMP JUMPDEST PUSH1 0x24 DUP3 PUSH4 0x4E487B71 PUSH1 0xE0 SHL DUP2 MSTORE PUSH1 0x21 PUSH1 0x4 MSTORE REVERT JUMPDEST PUSH1 0x24 PUSH1 0x40 MLOAD PUSH32 0xD7F7333400000000000000000000000000000000000000000000000000000000 DUP2 MSTORE CALLER PUSH1 0x4 DUP3 ADD MSTORE REVERT JUMPDEST POP CALLVALUE PUSH2 0x1C1 JUMPI PUSH1 0x20 CALLDATASIZE PUSH1 0x3 NOT ADD SLT PUSH2 0x1C1 JUMPI PUSH1 0x20 PUSH2 0x1886 PUSH1 0x4 CALLDATALOAD PUSH2 0x2D31 JUMP JUMPDEST PUSH1 0x40 MLOAD SWAP1 ISZERO ISZERO DUP2 MSTORE RETURN JUMPDEST POP CALLVALUE PUSH2 0x1C1 JUMPI PUSH1 0x20 CALLDATASIZE PUSH1 0x3 NOT ADD SLT PUSH2 0x1C1 JUMPI PUSH2 0x18AA PUSH2 0x2BF9 JUMP JUMPDEST PUSH1 0x4 CALLDATALOAD PUSH1 0x4 SSTORE DUP1 RETURN JUMPDEST POP CALLVALUE PUSH2 0x1C1 JUMPI PUSH1 0x40 CALLDATASIZE PUSH1 0x3 NOT ADD SLT PUSH2 0x1C1 JUMPI PUSH2 0x245 PUSH1 0x4 CALLDATALOAD PUSH2 0x18D3 PUSH2 0x1FD6 JUMP JUMPDEST SWAP1 DUP1 DUP5 MSTORE DUP4 PUSH1 0x20 MSTORE PUSH2 0x18EB PUSH1 0x1 PUSH1 0x40 DUP7 KECCAK256 ADD SLOAD PUSH2 0x2C8C JUMP JUMPDEST PUSH2 0x2CB2 JUMP JUMPDEST POP CALLVALUE PUSH2 0x1C1 JUMPI PUSH1 0x20 CALLDATASIZE PUSH1 0x3 NOT ADD SLT PUSH2 0x1C1 JUMPI PUSH1 0x1 PUSH1 0x40 PUSH1 0x20 SWAP3 PUSH1 0x4 CALLDATALOAD DUP2 MSTORE DUP1 DUP5 MSTORE KECCAK256 ADD SLOAD PUSH1 0x40 MLOAD SWAP1 DUP2 MSTORE RETURN JUMPDEST POP CALLVALUE PUSH2 0x1C1 JUMPI PUSH1 0x20 CALLDATASIZE PUSH1 0x3 NOT ADD SLT PUSH2 0x1C1 JUMPI PUSH1 0x4 CALLDATALOAD PUSH2 0x1939 PUSH2 0x2B11 JUMP JUMPDEST DUP1 DUP3 MSTORE PUSH1 0x8 PUSH1 0x20 MSTORE DUP2 PUSH1 0x40 DUP2 KECCAK256 PUSH1 0x8 DUP2 ADD PUSH2 0x1958 PUSH1 0xFF DUP3 SLOAD AND ISZERO PUSH2 0x23E6 JUMP JUMPDEST PUSH1 0x1 PUSH1 0x1 PUSH1 0xA0 SHL SUB SWAP2 DUP3 DUP2 SLOAD AND SWAP1 CALLER DUP3 SUB PUSH2 0x79F JUMPI PUSH2 0x1983 SWAP2 PUSH1 0x6 DUP6 PUSH1 0x1 DUP5 ADD SLOAD AND SWAP3 ADD SLOAD SWAP2 PUSH2 0x2BA4 JUMP JUMPDEST PUSH1 0x1 PUSH1 0xFF NOT DUP3 SLOAD AND OR SWAP1 SSTORE PUSH1 0x1 SLOAD PUSH1 0x8 SHR AND DUP1 EXTCODESIZE ISZERO PUSH2 0x790 JUMPI DUP2 DUP1 SWAP2 PUSH1 0x24 PUSH1 0x40 MLOAD DUP1 SWAP5 DUP2 SWAP4 PUSH4 0xC4D252F5 PUSH1 0xE0 SHL DUP4 MSTORE DUP9 PUSH1 0x4 DUP5 ADD MSTORE GAS CALL DUP1 ISZERO PUSH2 0x794 JUMPI PUSH2 0x19ED JUMPI JUMPDEST POP DUP1 PUSH32 0xBBDE28112400EAEE5DF97F22C92D999734E40E3E72E4418C370F491611289471 SWAP2 LOG2 DUP1 RETURN JUMPDEST PUSH2 0x19F6 SWAP1 PUSH2 0x20A6 JUMP JUMPDEST PUSH2 0x790 JUMPI DUP2 CODESIZE PUSH2 0x19C5 JUMP JUMPDEST POP PUSH2 0x1A0B CALLDATASIZE PUSH2 0x1FEC JUMP JUMPDEST SWAP2 SWAP1 SWAP7 SWAP6 SWAP5 SWAP3 PUSH2 0x1A19 PUSH2 0x2B11 JUMP JUMPDEST PUSH1 0x1 PUSH1 0x1 PUSH1 0xA0 SHL SUB DUP7 AND CALLER EQ PUSH2 0x1C88 JUMPI PUSH2 0x1A3E DUP6 ADDRESS CALLER PUSH1 0x1 PUSH1 0x1 PUSH1 0xA0 SHL SUB DUP9 AND PUSH2 0x2B47 JUMP JUMPDEST PUSH2 0x1A50 PUSH1 0x4 SLOAD PUSH2 0x288 DUP2 CALLVALUE LT ISZERO PUSH2 0x219E JUMP JUMPDEST PUSH1 0x3 SSTORE PUSH1 0x1 PUSH1 0x1 PUSH1 0xA0 SHL SUB PUSH1 0x1 SLOAD PUSH1 0x8 SHR AND PUSH1 0x40 MLOAD SWAP1 PUSH4 0x127E8E4D PUSH1 0xE0 SHL DUP3 MSTORE DUP4 PUSH1 0x4 DUP4 ADD MSTORE PUSH1 0x20 DUP3 PUSH1 0x24 DUP2 DUP5 GAS STATICCALL SWAP2 DUP3 ISZERO PUSH2 0x555 JUMPI DUP10 SWAP3 PUSH2 0x1C53 JUMPI JUMPDEST POP PUSH1 0x20 PUSH1 0x4 SWAP2 PUSH1 0x40 MLOAD SWAP3 DUP4 DUP1 SWAP3 PUSH4 0x22F0122B PUSH1 0xE2 SHL DUP3 MSTORE GAS STATICCALL SWAP1 DUP2 ISZERO PUSH2 0x555 JUMPI PUSH2 0x1ACC SWAP2 DUP4 SWAP2 DUP12 SWAP2 PUSH2 0x526 JUMPI POP ADDRESS SWAP1 PUSH1 0x1 PUSH1 0x1 PUSH1 0xA0 SHL SUB CALLER SWAP2 AND PUSH2 0x2B47 JUMP JUMPDEST PUSH1 0x1 PUSH1 0x1 PUSH1 0xA0 SHL SUB PUSH1 0x1 SLOAD PUSH1 0x8 SHR AND SWAP1 DUP2 EXTCODESIZE ISZERO PUSH2 0x522 JUMPI DUP9 SWAP2 PUSH1 0x24 DUP4 SWAP3 PUSH1 0x40 MLOAD SWAP5 DUP6 SWAP4 DUP5 SWAP3 PUSH4 0xB6B55F25 PUSH1 0xE0 SHL DUP5 MSTORE PUSH1 0x4 DUP5 ADD MSTORE GAS CALL DUP1 ISZERO PUSH2 0x517 JUMPI PUSH2 0x1C40 JUMPI JUMPDEST POP DUP7 PUSH1 0x20 PUSH2 0x1B20 PUSH1 0x40 MLOAD PUSH2 0x363 DUP2 PUSH2 0x20D0 JUMP JUMPDEST SUB SWAP3 GAS CALL SWAP8 DUP9 ISZERO PUSH2 0x4F2 JUMPI DUP2 SWAP9 PUSH2 0x1BFD JUMPI JUMPDEST POP SWAP3 PUSH1 0x20 SWAP9 PUSH32 0x15A702FD8F005A309638A801AEE50874761962676CD3A81B1EEF8388847B796C SWAP6 SWAP4 PUSH2 0x49F SWAP4 PUSH1 0x40 DUP12 SWAP11 SWAP10 SWAP8 PUSH2 0x1BDC DUP3 MLOAD PUSH2 0x1B72 DUP2 PUSH2 0x20EC JUMP JUMPDEST CALLER DUP2 MSTORE PUSH1 0x1 PUSH1 0x1 PUSH1 0xA0 SHL SUB DUP14 AND PUSH1 0x20 DUP3 ADD MSTORE PUSH1 0x1 PUSH1 0x1 PUSH1 0xA0 SHL SUB DUP11 AND DUP5 DUP3 ADD MSTORE DUP11 PUSH1 0x60 DUP3 ADD MSTORE DUP6 PUSH1 0x80 DUP3 ADD MSTORE PUSH2 0x1BAB DUP8 PUSH1 0xA0 DUP4 ADD PUSH2 0x222C JUMP JUMPDEST PUSH2 0x1BB8 DUP9 PUSH1 0xC0 DUP4 ADD PUSH2 0x2238 JUMP JUMPDEST DUP11 PUSH1 0xE0 DUP3 ADD MSTORE TIMESTAMP PUSH2 0x100 DUP3 ADD MSTORE DUP3 PUSH2 0x120 DUP3 ADD MSTORE DUP14 DUP4 MSTORE DUP16 PUSH1 0xA SWAP1 MSTORE DUP4 DUP4 KECCAK256 PUSH2 0x22BE JUMP JUMPDEST DUP12 DUP2 MSTORE PUSH1 0xB DUP15 MSTORE KECCAK256 PUSH1 0x3 PUSH1 0xFF NOT DUP3 SLOAD AND OR SWAP1 SSTORE PUSH1 0x40 MLOAD SWAP7 DUP8 SWAP7 CALLER SWAP11 DUP9 PUSH2 0x2393 JUMP JUMPDEST SWAP2 SWAP5 SWAP3 SWAP8 POP SWAP6 SWAP5 SWAP3 PUSH1 0x20 DUP3 RETURNDATASIZE PUSH1 0x20 GT PUSH2 0x1C38 JUMPI JUMPDEST DUP2 PUSH2 0x1C1E PUSH1 0x20 SWAP4 DUP4 PUSH2 0x2142 JUMP JUMPDEST DUP2 ADD SUB SLT PUSH2 0x4E5 JUMPI SWAP1 MLOAD SWAP7 SWAP5 SWAP6 SWAP3 SWAP5 SWAP2 SWAP4 SWAP1 SWAP3 PUSH1 0x20 PUSH2 0x1B32 JUMP JUMPDEST RETURNDATASIZE SWAP2 POP PUSH2 0x1C11 JUMP JUMPDEST PUSH2 0x1C4C SWAP1 SWAP8 SWAP2 SWAP8 PUSH2 0x20A6 JUMP JUMPDEST SWAP6 CODESIZE PUSH2 0x1B0D JUMP JUMPDEST SWAP1 SWAP2 POP PUSH1 0x20 DUP2 RETURNDATASIZE PUSH1 0x20 GT PUSH2 0x1C80 JUMPI JUMPDEST DUP2 PUSH2 0x1C6F PUSH1 0x20 SWAP4 DUP4 PUSH2 0x2142 JUMP JUMPDEST DUP2 ADD SUB SLT PUSH2 0x522 JUMPI MLOAD SWAP1 PUSH1 0x20 PUSH2 0x1A8D JUMP JUMPDEST RETURNDATASIZE SWAP2 POP PUSH2 0x1C62 JUMP JUMPDEST PUSH1 0x64 PUSH1 0x40 MLOAD PUSH3 0x461BCD PUSH1 0xE5 SHL DUP2 MSTORE PUSH1 0x20 PUSH1 0x4 DUP3 ADD MSTORE PUSH1 0x16 PUSH1 0x24 DUP3 ADD MSTORE PUSH32 0x43616E277420646F2073656C66207472616E7366657200000000000000000000 PUSH1 0x44 DUP3 ADD MSTORE REVERT JUMPDEST POP CALLVALUE PUSH2 0x1C1 JUMPI PUSH1 0x80 CALLDATASIZE PUSH1 0x3 NOT ADD SLT PUSH2 0x1C1 JUMPI PUSH2 0x1CE6 PUSH2 0x1FC0 JUMP JUMPDEST SWAP1 PUSH2 0x1CEF PUSH2 0x1FD6 JUMP JUMPDEST SWAP1 PUSH1 0x44 CALLDATALOAD PUSH1 0x64 CALLDATALOAD SWAP2 PUSH1 0x1 PUSH1 0x1 PUSH1 0xA0 SHL SUB DUP1 PUSH1 0x2 SLOAD AND SWAP6 PUSH1 0x40 MLOAD DUP1 SWAP8 PUSH4 0xC45A0155 PUSH1 0xE0 SHL DUP3 MSTORE DUP2 PUSH1 0x4 PUSH1 0x20 SWAP11 DUP12 SWAP4 GAS STATICCALL SWAP1 DUP2 ISZERO PUSH2 0x162B JUMPI PUSH1 0x44 DUP5 SWAP4 DUP5 DUP12 SWAP5 DUP2 SWAP5 DUP10 SWAP2 PUSH2 0x1F03 JUMPI JUMPDEST POP PUSH1 0x40 MLOAD SWAP7 DUP8 SWAP6 DUP7 SWAP5 PUSH4 0xE6A43905 PUSH1 0xE0 SHL DUP7 MSTORE AND SWAP13 DUP14 PUSH1 0x4 DUP7 ADD MSTORE AND PUSH1 0x24 DUP5 ADD MSTORE AND GAS STATICCALL SWAP1 DUP2 ISZERO PUSH2 0x1002 JUMPI SWAP1 DUP3 SWAP2 DUP5 SWAP2 PUSH2 0x1EE6 JUMPI JUMPDEST POP AND SWAP5 PUSH1 0x40 MLOAD SWAP2 PUSH4 0x240BC6B PUSH1 0xE2 SHL DUP4 MSTORE PUSH1 0x60 DUP4 PUSH1 0x4 DUP2 DUP11 GAS STATICCALL SWAP7 DUP8 ISZERO PUSH2 0x162B JUMPI DUP9 SWAP1 DUP6 SWAP5 DUP7 SWAP10 PUSH2 0x1E84 JUMPI JUMPDEST POP SWAP1 PUSH1 0x4 SWAP2 PUSH1 0x40 MLOAD SWAP3 DUP4 DUP1 SWAP3 PUSH4 0xDFE1681 PUSH1 0xE0 SHL DUP3 MSTORE GAS STATICCALL SWAP1 DUP2 ISZERO PUSH2 0x1423 JUMPI DUP6 SWAP2 PUSH2 0x1E67 JUMPI JUMPDEST POP AND SUB PUSH2 0x1E61 JUMPI SWAP4 SWAP2 JUMPDEST PUSH14 0xFFFFFFFFFFFFFFFFFFFFFFFFFFFF SWAP3 DUP4 AND SWAP4 DUP1 ISZERO PUSH2 0x1E57 JUMPI SWAP1 JUMPDEST DUP1 ISZERO ISZERO DUP1 PUSH2 0x1E4C JUMPI JUMPDEST DUP1 PUSH2 0x1E43 JUMPI JUMPDEST ISZERO PUSH2 0x13D1 JUMPI PUSH2 0x1E0D PUSH2 0x1E06 PUSH2 0x2710 SWAP4 DUP7 SWAP4 PUSH2 0x2ADE JUMP JUMPDEST SWAP6 DUP7 PUSH2 0x2ADE JUMP JUMPDEST SWAP6 AND MUL SWAP2 DUP3 AND SWAP2 DUP3 SUB PUSH2 0x1E2F JUMPI POP PUSH2 0xB6C SWAP3 SWAP2 PUSH2 0x1E29 SWAP2 PUSH2 0x21E9 JUMP JUMPDEST SWAP1 PUSH2 0x2AF1 JUMP JUMPDEST DUP1 PUSH4 0x4E487B71 PUSH1 0xE0 SHL PUSH1 0x24 SWAP3 MSTORE PUSH1 0x11 PUSH1 0x4 MSTORE REVERT JUMPDEST POP DUP5 ISZERO ISZERO PUSH2 0x1DF0 JUMP JUMPDEST POP DUP4 DUP7 AND ISZERO ISZERO PUSH2 0x1DEA JUMP JUMPDEST POP PUSH2 0x26F2 SWAP1 PUSH2 0x1DE1 JUMP JUMPDEST SWAP2 PUSH2 0x1DC6 JUMP JUMPDEST PUSH2 0x1E7E SWAP2 POP DUP10 RETURNDATASIZE DUP12 GT PUSH2 0x54E JUMPI PUSH2 0x540 DUP2 DUP4 PUSH2 0x2142 JUMP JUMPDEST CODESIZE PUSH2 0x1DBC JUMP JUMPDEST SWAP5 POP SWAP8 POP POP PUSH1 0x60 DUP4 RETURNDATASIZE PUSH1 0x60 GT PUSH2 0x1EDE JUMPI JUMPDEST DUP2 PUSH2 0x1EA2 PUSH1 0x60 SWAP4 DUP4 PUSH2 0x2142 JUMP JUMPDEST DUP2 ADD SUB SLT PUSH2 0x1EDA JUMPI PUSH2 0x1EB3 DUP4 PUSH2 0x2183 JUMP JUMPDEST PUSH1 0x40 PUSH2 0x1EC0 DUP11 DUP7 ADD PUSH2 0x2183 JUMP JUMPDEST SWAP5 ADD MLOAD PUSH4 0xFFFFFFFF DUP2 AND SUB PUSH2 0x79F JUMPI SWAP3 SWAP7 DUP9 SWAP1 PUSH1 0x4 PUSH2 0x1D96 JUMP JUMPDEST DUP4 DUP1 REVERT JUMPDEST RETURNDATASIZE SWAP2 POP PUSH2 0x1E95 JUMP JUMPDEST PUSH2 0x1EFD SWAP2 POP DUP9 RETURNDATASIZE DUP11 GT PUSH2 0x54E JUMPI PUSH2 0x540 DUP2 DUP4 PUSH2 0x2142 JUMP JUMPDEST CODESIZE PUSH2 0x1D6A JUMP JUMPDEST PUSH2 0x1F1A SWAP2 POP DUP7 RETURNDATASIZE DUP9 GT PUSH2 0x54E JUMPI PUSH2 0x540 DUP2 DUP4 PUSH2 0x2142 JUMP JUMPDEST CODESIZE PUSH2 0x1D35 JUMP JUMPDEST SWAP1 POP CALLVALUE PUSH2 0x790 JUMPI PUSH1 0x20 CALLDATASIZE PUSH1 0x3 NOT ADD SLT PUSH2 0x790 JUMPI PUSH1 0x4 CALLDATALOAD PUSH32 0xFFFFFFFF00000000000000000000000000000000000000000000000000000000 DUP2 AND DUP1 SWAP2 SUB PUSH2 0x13D1 JUMPI PUSH1 0x20 SWAP3 POP PUSH32 0x7965DB0B00000000000000000000000000000000000000000000000000000000 DUP2 EQ SWAP1 DUP2 ISZERO PUSH2 0x1F96 JUMPI JUMPDEST POP ISZERO ISZERO DUP2 MSTORE RETURN JUMPDEST PUSH32 0x1FFC9A700000000000000000000000000000000000000000000000000000000 SWAP2 POP EQ CODESIZE PUSH2 0x1F8F JUMP JUMPDEST PUSH1 0x4 CALLDATALOAD SWAP1 PUSH1 0x1 PUSH1 0x1 PUSH1 0xA0 SHL SUB DUP3 AND DUP3 SUB PUSH2 0x4E5 JUMPI JUMP JUMPDEST PUSH1 0x24 CALLDATALOAD SWAP1 PUSH1 0x1 PUSH1 0x1 PUSH1 0xA0 SHL SUB DUP3 AND DUP3 SUB PUSH2 0x4E5 JUMPI JUMP JUMPDEST PUSH1 0xE0 SWAP1 PUSH1 0x3 NOT ADD SLT PUSH2 0x4E5 JUMPI PUSH1 0x1 PUSH1 0x1 PUSH1 0xA0 SHL SUB SWAP1 PUSH1 0x4 CALLDATALOAD DUP3 DUP2 AND DUP2 SUB PUSH2 0x4E5 JUMPI SWAP2 PUSH1 0x24 CALLDATALOAD SWAP1 DUP2 AND DUP2 SUB PUSH2 0x4E5 JUMPI SWAP1 PUSH1 0x44 CALLDATALOAD SWAP1 PUSH1 0x64 CALLDATALOAD PUSH8 0xFFFFFFFFFFFFFFFF DUP2 AND DUP2 SUB PUSH2 0x4E5 JUMPI SWAP1 PUSH1 0x84 CALLDATALOAD SWAP1 PUSH1 0xA4 CALLDATALOAD PUSH1 0xF DUP2 LT ISZERO PUSH2 0x4E5 JUMPI SWAP1 PUSH1 0xC4 CALLDATALOAD PUSH1 0x19 DUP2 LT ISZERO PUSH2 0x4E5 JUMPI SWAP1 JUMP JUMPDEST PUSH1 0xC0 SWAP1 PUSH1 0x3 NOT ADD SLT PUSH2 0x4E5 JUMPI PUSH1 0x1 PUSH1 0x1 PUSH1 0xA0 SHL SUB SWAP1 PUSH1 0x4 CALLDATALOAD DUP3 DUP2 AND DUP2 SUB PUSH2 0x4E5 JUMPI SWAP2 PUSH1 0x24 CALLDATALOAD SWAP1 DUP2 AND DUP2 SUB PUSH2 0x4E5 JUMPI SWAP1 PUSH1 0x44 CALLDATALOAD SWAP1 PUSH1 0x64 CALLDATALOAD SWAP1 PUSH1 0x84 CALLDATALOAD PUSH8 0xFFFFFFFFFFFFFFFF DUP2 AND DUP2 SUB PUSH2 0x4E5 JUMPI SWAP1 PUSH1 0xA4 CALLDATALOAD SWAP1 JUMP JUMPDEST PUSH8 0xFFFFFFFFFFFFFFFF DUP2 GT PUSH2 0x20BA JUMPI PUSH1 0x40 MSTORE JUMP JUMPDEST PUSH4 0x4E487B71 PUSH1 0xE0 SHL PUSH1 0x0 MSTORE PUSH1 0x41 PUSH1 0x4 MSTORE PUSH1 0x24 PUSH1 0x0 REVERT JUMPDEST PUSH1 0xA0 DUP2 ADD SWAP1 DUP2 LT PUSH8 0xFFFFFFFFFFFFFFFF DUP3 GT OR PUSH2 0x20BA JUMPI PUSH1 0x40 MSTORE JUMP JUMPDEST PUSH2 0x140 DUP2 ADD SWAP1 DUP2 LT PUSH8 0xFFFFFFFFFFFFFFFF DUP3 GT OR PUSH2 0x20BA JUMPI PUSH1 0x40 MSTORE JUMP JUMPDEST PUSH2 0x100 DUP2 ADD SWAP1 DUP2 LT PUSH8 0xFFFFFFFFFFFFFFFF DUP3 GT OR PUSH2 0x20BA JUMPI PUSH1 0x40 MSTORE JUMP JUMPDEST PUSH1 0x60 DUP2 ADD SWAP1 DUP2 LT PUSH8 0xFFFFFFFFFFFFFFFF DUP3 GT OR PUSH2 0x20BA JUMPI PUSH1 0x40 MSTORE JUMP JUMPDEST SWAP1 PUSH1 0x1F DUP1 NOT SWAP2 ADD AND DUP2 ADD SWAP1 DUP2 LT PUSH8 0xFFFFFFFFFFFFFFFF DUP3 GT OR PUSH2 0x20BA JUMPI PUSH1 0x40 MSTORE JUMP JUMPDEST SWAP1 DUP2 PUSH1 0x20 SWAP2 SUB SLT PUSH2 0x4E5 JUMPI MLOAD PUSH1 0x1 PUSH1 0x1 PUSH1 0xA0 SHL SUB DUP2 AND DUP2 SUB PUSH2 0x4E5 JUMPI SWAP1 JUMP JUMPDEST MLOAD SWAP1 PUSH14 0xFFFFFFFFFFFFFFFFFFFFFFFFFFFF DUP3 AND DUP3 SUB PUSH2 0x4E5 JUMPI JUMP JUMPDEST ISZERO PUSH2 0x21A5 JUMPI JUMP JUMPDEST PUSH1 0x64 PUSH1 0x40 MLOAD PUSH3 0x461BCD PUSH1 0xE5 SHL DUP2 MSTORE PUSH1 0x20 PUSH1 0x4 DUP3 ADD MSTORE PUSH1 0x10 PUSH1 0x24 DUP3 ADD MSTORE PUSH32 0x496E73756666696369656E742066656500000000000000000000000000000000 PUSH1 0x44 DUP3 ADD MSTORE REVERT JUMPDEST SWAP2 SWAP1 DUP3 ADD DUP1 SWAP3 GT PUSH2 0x21F6 JUMPI JUMP JUMPDEST PUSH4 0x4E487B71 PUSH1 0xE0 SHL PUSH1 0x0 MSTORE PUSH1 0x11 PUSH1 0x4 MSTORE PUSH1 0x24 PUSH1 0x0 REVERT JUMPDEST PUSH1 0x2 GT ISZERO PUSH2 0x2216 JUMPI JUMP JUMPDEST PUSH4 0x4E487B71 PUSH1 0xE0 SHL PUSH1 0x0 MSTORE PUSH1 0x21 PUSH1 0x4 MSTORE PUSH1 0x24 PUSH1 0x0 REVERT JUMPDEST PUSH1 0xF DUP3 LT ISZERO PUSH2 0x2216 JUMPI MSTORE JUMP JUMPDEST PUSH1 0x19 DUP3 LT ISZERO PUSH2 0x2216 JUMPI MSTORE JUMP JUMPDEST SWAP1 PUSH1 0xF DUP3 LT ISZERO PUSH2 0x2216 JUMPI MSTORE JUMP JUMPDEST SWAP1 PUSH1 0x19 DUP3 LT ISZERO PUSH2 0x2216 JUMPI MSTORE JUMP JUMPDEST SWAP2 SWAP1 SWAP2 PUSH1 0x80 DUP1 PUSH1 0xA0 DUP4 ADD SWAP5 PUSH8 0xFFFFFFFFFFFFFFFF DUP2 MLOAD AND DUP5 MSTORE PUSH1 0x20 DUP2 ADD MLOAD PUSH2 0x2285 DUP2 PUSH2 0x220C JUMP JUMPDEST PUSH1 0x20 DUP6 ADD MSTORE PUSH2 0x229C PUSH1 0x40 DUP3 ADD MLOAD PUSH1 0x40 DUP7 ADD SWAP1 PUSH2 0x2244 JUMP JUMPDEST PUSH2 0x22AE PUSH1 0x60 DUP3 ADD MLOAD PUSH1 0x60 DUP7 ADD SWAP1 PUSH2 0x2251 JUMP JUMPDEST ADD MLOAD SWAP2 PUSH2 0x22BA DUP4 PUSH2 0x220C JUMP JUMPDEST ADD MSTORE JUMP JUMPDEST PUSH1 0x1 PUSH1 0x1 PUSH1 0xA0 SHL SUB DUP1 DUP4 MLOAD AND PUSH20 0xFFFFFFFFFFFFFFFFFFFFFFFFFFFFFFFFFFFFFFFF NOT SWAP1 DUP2 DUP5 SLOAD AND OR DUP4 SSTORE PUSH1 0x1 DUP4 ADD DUP3 PUSH1 0x20 DUP7 ADD MLOAD AND DUP3 DUP3 SLOAD AND OR SWAP1 SSTORE PUSH1 0x2 DUP4 ADD SWAP2 PUSH1 0x40 DUP6 ADD MLOAD AND SWAP1 DUP3 SLOAD AND OR SWAP1 SSTORE PUSH1 0x60 DUP3 ADD MLOAD PUSH1 0x3 DUP3 ADD SSTORE PUSH1 0x80 DUP3 ADD MLOAD PUSH1 0x4 DUP3 ADD SSTORE PUSH1 0x5 DUP2 ADD SWAP2 PUSH1 0xA0 DUP2 ADD MLOAD SWAP3 PUSH1 0xF DUP5 LT ISZERO PUSH2 0x2216 JUMPI DUP1 SLOAD SWAP2 PUSH1 0xC0 DUP2 ADD MLOAD SWAP2 PUSH1 0x19 DUP4 LT ISZERO PUSH2 0x2216 JUMPI PUSH2 0x2391 SWAP6 PUSH1 0x8 SWAP5 PUSH1 0xFF PUSH2 0xFF00 PUSH2 0x120 SWAP7 DUP9 SHL AND SWAP3 AND SWAP1 PUSH2 0xFFFF NOT AND OR OR SWAP1 SSTORE PUSH1 0xE0 DUP2 ADD MLOAD PUSH1 0x6 DUP6 ADD SSTORE PUSH2 0x100 DUP2 ADD MLOAD PUSH1 0x7 DUP6 ADD SSTORE ADD MLOAD ISZERO ISZERO SWAP2 ADD SWAP1 PUSH1 0xFF DUP1 NOT DUP4 SLOAD AND SWAP2 ISZERO ISZERO AND OR SWAP1 SSTORE JUMP JUMPDEST JUMP JUMPDEST SWAP3 SWAP5 PUSH8 0xFFFFFFFFFFFFFFFF PUSH1 0xC0 SWAP6 PUSH2 0x23DF SWAP5 SWAP11 SWAP10 SWAP8 PUSH2 0x2391 SWAP10 SWAP5 PUSH1 0xE0 DUP9 ADD SWAP13 PUSH1 0x1 PUSH1 0x1 PUSH1 0xA0 SHL SUB DUP1 SWAP3 AND DUP10 MSTORE AND PUSH1 0x20 DUP9 ADD MSTORE PUSH1 0x40 DUP8 ADD MSTORE AND PUSH1 0x60 DUP6 ADD MSTORE PUSH1 0x80 DUP5 ADD MSTORE PUSH1 0xA0 DUP4 ADD SWAP1 PUSH2 0x2244 JUMP JUMPDEST ADD SWAP1 PUSH2 0x2251 JUMP JUMPDEST ISZERO PUSH2 0x23ED JUMPI JUMP JUMPDEST PUSH1 0x64 PUSH1 0x40 MLOAD PUSH3 0x461BCD PUSH1 0xE5 SHL DUP2 MSTORE PUSH1 0x20 PUSH1 0x4 DUP3 ADD MSTORE PUSH1 0x13 PUSH1 0x24 DUP3 ADD MSTORE PUSH32 0x4F726465722077617320636F6D706C6574656400000000000000000000000000 PUSH1 0x44 DUP3 ADD MSTORE REVERT JUMPDEST PUSH1 0x7 PUSH1 0xE0 PUSH2 0x2391 SWAP4 PUSH1 0x1 PUSH1 0x1 PUSH1 0xA0 SHL SUB DUP1 DUP3 MLOAD AND PUSH20 0xFFFFFFFFFFFFFFFFFFFFFFFFFFFFFFFFFFFFFFFF NOT SWAP1 DUP2 DUP8 SLOAD AND OR DUP7 SSTORE PUSH1 0x1 DUP7 ADD DUP3 PUSH1 0x20 DUP6 ADD MLOAD AND DUP3 DUP3 SLOAD AND OR SWAP1 SSTORE PUSH1 0x2 DUP7 ADD SWAP2 PUSH1 0x40 DUP5 ADD MLOAD AND SWAP1 DUP3 SLOAD AND OR SWAP1 SSTORE PUSH1 0x60 DUP2 ADD MLOAD PUSH1 0x3 DUP6 ADD SSTORE PUSH1 0x80 DUP2 ADD MLOAD PUSH1 0x4 DUP6 ADD SSTORE PUSH1 0xA0 DUP2 ADD MLOAD PUSH1 0x5 DUP6 ADD SSTORE PUSH1 0xC0 DUP2 ADD MLOAD PUSH1 0x6 DUP6 ADD SSTORE ADD MLOAD ISZERO ISZERO SWAP2 ADD SWAP1 PUSH1 0xFF DUP1 NOT DUP4 SLOAD AND SWAP2 ISZERO ISZERO AND OR SWAP1 SSTORE JUMP JUMPDEST DUP1 MLOAD ISZERO PUSH2 0x24D3 JUMPI PUSH1 0x20 ADD SWAP1 JUMP JUMPDEST PUSH4 0x4E487B71 PUSH1 0xE0 SHL PUSH1 0x0 MSTORE PUSH1 0x32 PUSH1 0x4 MSTORE PUSH1 0x24 PUSH1 0x0 REVERT JUMPDEST DUP1 MLOAD PUSH1 0x1 LT ISZERO PUSH2 0x24D3 JUMPI PUSH1 0x40 ADD SWAP1 JUMP JUMPDEST SWAP1 DUP2 PUSH1 0x20 SWAP2 SUB SLT PUSH2 0x4E5 JUMPI MLOAD DUP1 ISZERO ISZERO DUP2 SUB PUSH2 0x4E5 JUMPI SWAP1 JUMP JUMPDEST SWAP1 PUSH1 0x20 SWAP1 DUP2 DUP4 DUP3 SUB SLT PUSH2 0x4E5 JUMPI DUP3 MLOAD PUSH8 0xFFFFFFFFFFFFFFFF SWAP4 DUP5 DUP3 GT PUSH2 0x4E5 JUMPI ADD DUP2 PUSH1 0x1F DUP3 ADD SLT ISZERO PUSH2 0x4E5 JUMPI DUP1 MLOAD SWAP4 DUP5 GT PUSH2 0x20BA JUMPI DUP4 PUSH1 0x5 SHL SWAP1 PUSH1 0x40 MLOAD SWAP5 PUSH2 0x255B DUP6 DUP5 ADD DUP8 PUSH2 0x2142 JUMP JUMPDEST DUP6 MSTORE DUP4 DUP1 DUP7 ADD SWAP3 DUP3 ADD ADD SWAP3 DUP4 GT PUSH2 0x4E5 JUMPI DUP4 ADD SWAP1 JUMPDEST DUP3 DUP3 LT PUSH2 0x257E JUMPI POP POP POP POP SWAP1 JUMP JUMPDEST DUP2 MLOAD DUP2 MSTORE SWAP1 DUP4 ADD SWAP1 DUP4 ADD PUSH2 0x2570 JUMP JUMPDEST SWAP1 DUP2 MLOAD DUP1 DUP3 MSTORE PUSH1 0x20 DUP1 DUP1 SWAP4 ADD SWAP4 ADD SWAP2 PUSH1 0x0 JUMPDEST DUP3 DUP2 LT PUSH2 0x25AD JUMPI POP POP POP POP SWAP1 JUMP JUMPDEST DUP4 MLOAD PUSH1 0x1 PUSH1 0x1 PUSH1 0xA0 SHL SUB AND DUP6 MSTORE SWAP4 DUP2 ADD SWAP4 SWAP3 DUP2 ADD SWAP3 PUSH1 0x1 ADD PUSH2 0x259F JUMP JUMPDEST SWAP2 PUSH1 0x80 SWAP4 PUSH2 0x25F7 SWAP2 PUSH1 0x1 PUSH1 0x1 PUSH1 0xA0 SHL SUB SWAP4 SWAP9 SWAP8 SWAP7 SWAP9 DUP6 MSTORE PUSH1 0x20 DUP6 ADD MSTORE PUSH1 0xA0 PUSH1 0x40 DUP6 ADD MSTORE PUSH1 0xA0 DUP5 ADD SWAP1 PUSH2 0x258D JUMP JUMPDEST SWAP6 AND PUSH1 0x60 DUP3 ADD MSTORE ADD MSTORE JUMP JUMPDEST SWAP2 SWAP1 SWAP5 SWAP3 SWAP4 SWAP5 PUSH1 0x0 SWAP3 PUSH1 0x1 PUSH1 0x1 PUSH1 0xA0 SHL SUB DUP1 DUP3 AND SWAP2 PUSH2 0x2623 DUP6 ADDRESS CALLER DUP7 PUSH2 0x2B47 JUMP JUMPDEST PUSH8 0xFFFFFFFFFFFFFFFF SWAP2 DUP3 DUP11 AND DUP1 PUSH2 0x280C JUMPI POP PUSH1 0x40 DUP1 MLOAD PUSH2 0x2643 DUP2 PUSH2 0x2126 JUMP JUMPDEST PUSH1 0x2 DUP2 MSTORE DUP2 CALLDATASIZE PUSH1 0x20 DUP4 ADD CALLDATACOPY DUP6 PUSH2 0x2658 DUP3 PUSH2 0x24C6 JUMP JUMPDEST MSTORE PUSH2 0x2662 DUP2 PUSH2 0x24E9 JUMP JUMPDEST DUP4 DUP9 AND SWAP1 DUP2 SWAP1 MSTORE PUSH1 0x2 SLOAD DUP4 MLOAD PUSH4 0x95EA7B3 PUSH1 0xE0 SHL DUP2 MSTORE SWAP1 DUP6 AND PUSH1 0x1 PUSH1 0x1 PUSH1 0xA0 SHL SUB AND PUSH1 0x4 DUP3 ADD MSTORE PUSH1 0x24 DUP2 ADD DUP11 SWAP1 MSTORE SWAP1 SWAP4 SWAP1 PUSH1 0x20 DUP2 PUSH1 0x44 DUP2 DUP15 DUP13 GAS CALL DUP1 ISZERO PUSH2 0x2802 JUMPI DUP13 SWAP4 DUP13 DUP16 SWAP3 SWAP5 DUP14 SWAP5 DUP3 SWAP7 PUSH2 0x27E3 JUMPI JUMPDEST POP PUSH1 0x2 SLOAD AND SWAP3 PUSH2 0x26D9 DUP9 MLOAD SWAP8 DUP9 SWAP7 DUP8 SWAP6 DUP7 SWAP5 PUSH4 0x38ED1739 PUSH1 0xE0 SHL DUP7 MSTORE CALLER SWAP3 PUSH1 0x4 DUP8 ADD PUSH2 0x25CA JUMP JUMPDEST SUB SWAP3 GAS CALL DUP1 ISZERO PUSH2 0x27D9 JUMPI PUSH2 0x27BF JUMPI JUMPDEST POP DUP1 MLOAD SWAP2 PUSH1 0x20 DUP4 ADD SWAP6 CALLER DUP8 MSTORE DUP3 DUP5 ADD MSTORE PUSH1 0x60 DUP4 ADD MSTORE DUP7 PUSH1 0x80 DUP4 ADD MSTORE TIMESTAMP PUSH1 0xA0 DUP4 ADD MSTORE PUSH1 0xA0 DUP3 MSTORE PUSH1 0xC0 DUP3 ADD SWAP4 DUP3 DUP6 LT SWAP1 DUP6 GT OR PUSH2 0x20BA JUMPI PUSH32 0x2248D3A7EF2C2079B1FDD5AE3DE854C74F65A50086908F1F30435EBC99812A12 SWAP9 PUSH32 0x553B73B35B99452E27A2DC1C1F730FFC524018AEA251B967E30924736EBEF376 SWAP6 DUP6 PUSH2 0x27B6 SWAP4 MSTORE DUP4 MLOAD SWAP1 KECCAK256 SWAP12 DUP13 SWAP12 DUP13 SWAP10 CALLER SWAP10 PUSH1 0xBF NOT SWAP8 DUP10 SWAP3 SWAP4 PUSH1 0xA0 SWAP5 PUSH8 0xFFFFFFFFFFFFFFFF SWAP4 SWAP9 SWAP8 SWAP7 SWAP3 PUSH1 0xC0 DUP7 ADD SWAP10 PUSH1 0x1 PUSH1 0x1 PUSH1 0xA0 SHL SUB DUP1 SWAP3 AND DUP8 MSTORE AND PUSH1 0x20 DUP7 ADD MSTORE PUSH1 0x40 DUP6 ADD MSTORE PUSH1 0x60 DUP5 ADD MSTORE AND PUSH1 0x80 DUP3 ADD MSTORE ADD MSTORE JUMP JUMPDEST SUB ADD SWAP1 LOG3 DUP1 LOG2 SWAP1 JUMP JUMPDEST PUSH2 0x27D2 SWAP1 RETURNDATASIZE DUP1 DUP12 DUP4 RETURNDATACOPY PUSH2 0x1414 DUP2 DUP4 PUSH2 0x2142 JUMP JUMPDEST POP CODESIZE PUSH2 0x26E8 JUMP JUMPDEST DUP3 MLOAD RETURNDATASIZE DUP12 DUP3 RETURNDATACOPY RETURNDATASIZE SWAP1 REVERT JUMPDEST PUSH2 0x27FB SWAP1 PUSH1 0x20 RETURNDATASIZE PUSH1 0x20 GT PUSH2 0x146A JUMPI PUSH2 0x145B DUP2 DUP4 PUSH2 0x2142 JUMP JUMPDEST POP CODESIZE PUSH2 0x26B2 JUMP JUMPDEST DUP5 MLOAD RETURNDATASIZE DUP14 DUP3 RETURNDATACOPY RETURNDATASIZE SWAP1 REVERT JUMPDEST SWAP10 SWAP4 SWAP1 SWAP2 SWAP8 SWAP5 SWAP6 SWAP7 SWAP9 SWAP3 POP PUSH2 0x2829 PUSH1 0x4 SLOAD PUSH2 0x288 DUP2 CALLVALUE LT ISZERO PUSH2 0x219E JUMP JUMPDEST PUSH1 0x3 SSTORE DUP2 PUSH1 0x1 SLOAD PUSH1 0x8 SHR AND SWAP1 PUSH1 0x40 SWAP3 DUP4 MLOAD SWAP3 PUSH4 0x127E8E4D PUSH1 0xE0 SHL DUP5 MSTORE PUSH1 0x1 PUSH1 0x4 DUP6 ADD MSTORE PUSH1 0x20 SWAP4 DUP5 DUP2 PUSH1 0x24 DUP2 DUP6 GAS STATICCALL SWAP1 DUP2 ISZERO PUSH2 0x2A99 JUMPI DUP6 SWAP1 DUP15 SWAP3 PUSH2 0x2AA3 JUMPI JUMPDEST POP PUSH1 0x4 SWAP2 SWAP3 DUP8 MLOAD SWAP3 DUP4 DUP1 SWAP3 PUSH4 0x22F0122B PUSH1 0xE2 SHL DUP3 MSTORE GAS STATICCALL SWAP1 DUP2 ISZERO PUSH2 0x2A99 JUMPI PUSH2 0x289E SWAP2 DUP4 SWAP2 DUP16 SWAP2 PUSH2 0x2A7C JUMPI JUMPDEST POP ADDRESS SWAP1 DUP6 CALLER SWAP2 AND PUSH2 0x2B47 JUMP JUMPDEST DUP2 PUSH1 0x1 SLOAD PUSH1 0x8 SHR AND SWAP1 DUP2 EXTCODESIZE ISZERO PUSH2 0x2A78 JUMPI DUP13 SWAP2 PUSH1 0x24 DUP4 SWAP3 DUP9 MLOAD SWAP5 DUP6 SWAP4 DUP5 SWAP3 PUSH4 0xB6B55F25 PUSH1 0xE0 SHL DUP5 MSTORE PUSH1 0x4 DUP5 ADD MSTORE GAS CALL DUP1 ISZERO PUSH2 0x2A6E JUMPI PUSH2 0x2A57 JUMPI JUMPDEST POP DUP3 PUSH2 0x2928 DUP13 SWAP14 DUP7 MLOAD SWAP1 PUSH2 0x28EA DUP3 PUSH2 0x20D0 JUMP JUMPDEST DUP2 MSTORE DUP14 DUP4 DUP3 ADD MSTORE PUSH1 0xE DUP8 DUP3 ADD MSTORE PUSH1 0x18 PUSH1 0x60 DUP3 ADD MSTORE PUSH1 0x1 PUSH1 0x80 DUP3 ADD MSTORE DUP4 PUSH1 0x1 SLOAD PUSH1 0x8 SHR AND SWAP1 DUP8 MLOAD SWAP15 DUP16 DUP1 SWAP5 DUP2 SWAP4 PUSH3 0xBF4E77 PUSH1 0xE2 SHL DUP4 MSTORE PUSH1 0x4 DUP4 ADD PUSH2 0x225E JUMP JUMPDEST SUB SWAP3 GAS CALL SWAP11 DUP12 ISZERO PUSH2 0x2A4D JUMPI DUP13 SWAP12 PUSH2 0x2A0C JUMPI JUMPDEST POP SWAP3 DUP11 SWAP12 PUSH1 0xB PUSH32 0x553B73B35B99452E27A2DC1C1F730FFC524018AEA251B967E30924736EBEF376 SWAP11 SWAP10 SWAP9 SWAP7 SWAP5 PUSH2 0x29B6 DUP5 SWAP6 DUP16 PUSH2 0x2A06 SWAP12 SWAP10 DUP8 MLOAD SWAP3 PUSH2 0x297D DUP5 PUSH2 0x2109 JUMP JUMPDEST CALLER DUP5 MSTORE DUP6 DUP5 ADD MSTORE DUP14 AND DUP8 DUP4 ADD MSTORE DUP14 PUSH1 0x60 DUP4 ADD MSTORE DUP9 PUSH1 0x80 DUP4 ADD MSTORE TIMESTAMP PUSH1 0xA0 DUP4 ADD MSTORE DUP11 PUSH1 0xC0 DUP4 ADD MSTORE DUP6 PUSH1 0xE0 DUP4 ADD MSTORE DUP6 MSTORE PUSH1 0x7 DUP4 MSTORE DUP6 DUP6 KECCAK256 PUSH2 0x2431 JUMP JUMPDEST MSTORE KECCAK256 PUSH1 0xFF NOT DUP2 SLOAD AND SWAP1 SSTORE MLOAD SWAP6 DUP7 SWAP6 CALLER SWAP10 DUP8 SWAP3 SWAP4 PUSH1 0xA0 SWAP5 PUSH8 0xFFFFFFFFFFFFFFFF SWAP4 SWAP9 SWAP8 SWAP7 SWAP3 PUSH1 0xC0 DUP7 ADD SWAP10 PUSH1 0x1 PUSH1 0x1 PUSH1 0xA0 SHL SUB DUP1 SWAP3 AND DUP8 MSTORE AND PUSH1 0x20 DUP7 ADD MSTORE PUSH1 0x40 DUP6 ADD MSTORE PUSH1 0x60 DUP5 ADD MSTORE AND PUSH1 0x80 DUP3 ADD MSTORE ADD MSTORE JUMP JUMPDEST SUB SWAP1 LOG3 SWAP1 JUMP JUMPDEST SWAP1 SWAP6 SWAP4 SWAP2 SWAP9 SWAP8 SWAP7 SWAP5 SWAP3 DUP1 SWAP12 POP DUP2 DUP2 RETURNDATASIZE DUP4 GT PUSH2 0x2A46 JUMPI JUMPDEST PUSH2 0x2A2C DUP2 DUP4 PUSH2 0x2142 JUMP JUMPDEST DUP2 ADD SUB SLT PUSH2 0x4E5 JUMPI DUP2 SWAP1 MLOAD SWAP11 SWAP3 SWAP5 SWAP7 SWAP8 SWAP9 SWAP2 SWAP4 SWAP6 SWAP1 PUSH2 0x293A JUMP JUMPDEST POP RETURNDATASIZE PUSH2 0x2A22 JUMP JUMPDEST DUP5 MLOAD RETURNDATASIZE DUP15 DUP3 RETURNDATACOPY RETURNDATASIZE SWAP1 REVERT JUMPDEST PUSH2 0x2928 SWAP13 SWAP12 PUSH2 0x2A66 DUP6 SWAP3 PUSH2 0x20A6 JUMP JUMPDEST SWAP12 SWAP13 POP PUSH2 0x28D7 JUMP JUMPDEST DUP6 MLOAD RETURNDATASIZE DUP15 DUP3 RETURNDATACOPY RETURNDATASIZE SWAP1 REVERT JUMPDEST DUP13 DUP1 REVERT JUMPDEST PUSH2 0x2A93 SWAP2 POP DUP8 RETURNDATASIZE DUP10 GT PUSH2 0x54E JUMPI PUSH2 0x540 DUP2 DUP4 PUSH2 0x2142 JUMP JUMPDEST CODESIZE PUSH2 0x2892 JUMP JUMPDEST DUP7 MLOAD RETURNDATASIZE DUP16 DUP3 RETURNDATACOPY RETURNDATASIZE SWAP1 REVERT JUMPDEST DUP1 SWAP3 POP DUP2 RETURNDATASIZE DUP4 GT PUSH2 0x2ACA JUMPI JUMPDEST PUSH2 0x2AB9 DUP2 DUP4 PUSH2 0x2142 JUMP JUMPDEST DUP2 ADD SUB SLT PUSH2 0x2A78 JUMPI MLOAD DUP5 PUSH1 0x4 PUSH2 0x2867 JUMP JUMPDEST POP RETURNDATASIZE PUSH2 0x2AAF JUMP JUMPDEST SWAP2 SWAP1 DUP3 SUB SWAP2 DUP3 GT PUSH2 0x21F6 JUMPI JUMP JUMPDEST DUP2 DUP2 MUL SWAP3 SWAP2 DUP2 ISZERO SWAP2 DUP5 DIV EQ OR ISZERO PUSH2 0x21F6 JUMPI JUMP JUMPDEST DUP2 ISZERO PUSH2 0x2AFB JUMPI DIV SWAP1 JUMP JUMPDEST PUSH4 0x4E487B71 PUSH1 0xE0 SHL PUSH1 0x0 MSTORE PUSH1 0x12 PUSH1 0x4 MSTORE PUSH1 0x24 PUSH1 0x0 REVERT JUMPDEST PUSH1 0xFF PUSH1 0x1 SLOAD AND PUSH2 0x2B1D JUMPI JUMP JUMPDEST PUSH1 0x4 PUSH1 0x40 MLOAD PUSH32 0xD93C066500000000000000000000000000000000000000000000000000000000 DUP2 MSTORE REVERT JUMPDEST SWAP1 SWAP3 PUSH2 0x2391 SWAP4 PUSH1 0x40 MLOAD SWAP4 PUSH32 0x23B872DD00000000000000000000000000000000000000000000000000000000 PUSH1 0x20 DUP7 ADD MSTORE PUSH1 0x1 PUSH1 0x1 PUSH1 0xA0 SHL SUB DUP1 SWAP3 AND PUSH1 0x24 DUP7 ADD MSTORE AND PUSH1 0x44 DUP5 ADD MSTORE PUSH1 0x64 DUP4 ADD MSTORE PUSH1 0x64 DUP3 MSTORE PUSH2 0x2B9F DUP3 PUSH2 0x20D0 JUMP JUMPDEST PUSH2 0x30A6 JUMP JUMPDEST PUSH1 0x40 MLOAD PUSH32 0xA9059CBB00000000000000000000000000000000000000000000000000000000 PUSH1 0x20 DUP3 ADD MSTORE PUSH1 0x1 PUSH1 0x1 PUSH1 0xA0 SHL SUB SWAP3 SWAP1 SWAP3 AND PUSH1 0x24 DUP4 ADD MSTORE PUSH1 0x44 DUP1 DUP4 ADD SWAP4 SWAP1 SWAP4 MSTORE SWAP2 DUP2 MSTORE PUSH2 0x2391 SWAP2 PUSH2 0x2B9F PUSH1 0x64 DUP4 PUSH2 0x2142 JUMP JUMPDEST CALLER PUSH1 0x0 SWAP1 DUP2 MSTORE PUSH32 0x7D7FFB7A348E1C6A02869081A26547B49160DD3DF72D1D75A570EB9B698292EC PUSH1 0x20 MSTORE PUSH1 0x40 SWAP1 KECCAK256 SLOAD PUSH32 0xA49807205CE4D355092EF5A8A18F56E8913CF4A201FBE287825B095693C21775 SWAP1 PUSH1 0xFF AND ISZERO PUSH2 0x2C55 JUMPI POP JUMP JUMPDEST PUSH1 0x44 SWAP1 PUSH1 0x40 MLOAD SWAP1 PUSH32 0xE2517D3F00000000000000000000000000000000000000000000000000000000 DUP3 MSTORE CALLER PUSH1 0x4 DUP4 ADD MSTORE PUSH1 0x24 DUP3 ADD MSTORE REVERT JUMPDEST DUP1 PUSH1 0x0 MSTORE PUSH1 0x0 PUSH1 0x20 MSTORE PUSH1 0x40 PUSH1 0x0 KECCAK256 CALLER PUSH1 0x0 MSTORE PUSH1 0x20 MSTORE PUSH1 0xFF PUSH1 0x40 PUSH1 0x0 KECCAK256 SLOAD AND ISZERO PUSH2 0x2C55 JUMPI POP JUMP JUMPDEST SWAP1 PUSH1 0x0 SWAP2 DUP1 DUP4 MSTORE DUP3 PUSH1 0x20 MSTORE PUSH1 0x1 PUSH1 0x1 PUSH1 0xA0 SHL SUB PUSH1 0x40 DUP5 KECCAK256 SWAP3 AND SWAP2 DUP3 DUP5 MSTORE PUSH1 0x20 MSTORE PUSH1 0xFF PUSH1 0x40 DUP5 KECCAK256 SLOAD AND ISZERO PUSH1 0x0 EQ PUSH2 0x2D2C JUMPI DUP1 DUP4 MSTORE DUP3 PUSH1 0x20 MSTORE PUSH1 0x40 DUP4 KECCAK256 DUP3 DUP5 MSTORE PUSH1 0x20 MSTORE PUSH1 0x40 DUP4 KECCAK256 PUSH1 0x1 PUSH1 0xFF NOT DUP3 SLOAD AND OR SWAP1 SSTORE PUSH32 0x2F8788117E7EFF1D82E926EC794901D17C78024A50270940304540A733656F0D CALLER SWAP4 DUP1 LOG4 PUSH1 0x1 SWAP1 JUMP JUMPDEST POP POP SWAP1 JUMP JUMPDEST PUSH1 0x0 SWAP1 DUP1 DUP3 MSTORE PUSH1 0x20 PUSH1 0xB DUP2 MSTORE PUSH1 0x40 SWAP2 PUSH1 0xFF DUP4 DUP6 KECCAK256 SLOAD AND SWAP1 PUSH1 0x4 SWAP2 DUP3 DUP2 LT ISZERO PUSH2 0x301D JUMPI PUSH1 0x1 EQ PUSH2 0x2D64 JUMPI POP POP POP POP POP PUSH1 0x1 SWAP1 JUMP JUMPDEST DUP5 MSTORE PUSH1 0x9 DUP3 MSTORE DUP3 DUP5 KECCAK256 SWAP4 DUP5 SWAP3 DUP5 MLOAD PUSH2 0x2D7B DUP2 PUSH2 0x2109 JUMP JUMPDEST PUSH1 0x1 PUSH1 0x1 PUSH1 0xA0 SHL SUB DUP1 DUP7 SLOAD AND DUP3 MSTORE DUP5 DUP2 PUSH1 0x1 DUP9 ADD SLOAD AND SWAP3 DUP4 DUP6 DUP3 ADD MSTORE DUP3 PUSH1 0x2 DUP10 ADD SLOAD AND SWAP1 DUP2 DUP11 DUP3 ADD MSTORE PUSH1 0xE0 PUSH1 0xFF PUSH1 0x7 DUP6 PUSH1 0x3 DUP14 ADD SLOAD SWAP13 DUP14 PUSH1 0x60 DUP8 ADD MSTORE ADD SLOAD SWAP14 PUSH1 0x80 DUP6 ADD SWAP15 DUP16 MSTORE PUSH1 0x5 DUP2 ADD SLOAD PUSH1 0xA0 DUP7 ADD MSTORE PUSH1 0x6 DUP2 ADD SLOAD PUSH1 0xC0 DUP7 ADD MSTORE ADD SLOAD AND ISZERO ISZERO SWAP2 ADD MSTORE DUP5 DUP4 PUSH1 0x2 SLOAD AND DUP11 MLOAD SWAP4 DUP5 DUP1 SWAP3 PUSH4 0xC45A0155 PUSH1 0xE0 SHL DUP3 MSTORE GAS STATICCALL SWAP2 DUP3 ISZERO PUSH2 0x3013 JUMPI SWAP2 DUP6 SWAP2 DUP5 SWAP4 DUP9 SWAP3 PUSH2 0x2FF1 JUMPI JUMPDEST POP PUSH1 0x44 SWAP1 DUP12 MLOAD SWAP5 DUP6 SWAP4 DUP5 SWAP3 PUSH4 0xE6A43905 PUSH1 0xE0 SHL DUP5 MSTORE DUP10 DUP14 DUP6 ADD MSTORE PUSH1 0x24 DUP5 ADD MSTORE AND GAS STATICCALL SWAP1 DUP2 ISZERO PUSH2 0x2FE7 JUMPI SWAP1 DUP3 SWAP2 DUP7 SWAP2 PUSH2 0x2FCA JUMPI JUMPDEST POP AND SWAP7 DUP1 MLOAD SWAP4 PUSH4 0x240BC6B PUSH1 0xE2 SHL DUP6 MSTORE PUSH1 0x60 DUP6 DUP9 DUP2 DUP13 GAS STATICCALL SWAP9 DUP10 ISZERO PUSH2 0x2FC0 JUMPI DUP7 SWAP6 DUP8 SWAP11 PUSH2 0x2F63 JUMPI JUMPDEST POP SWAP1 DUP1 DUP9 SWAP3 DUP5 MLOAD SWAP4 DUP5 DUP1 SWAP3 PUSH4 0xDFE1681 PUSH1 0xE0 SHL DUP3 MSTORE GAS STATICCALL SWAP3 DUP4 ISZERO PUSH2 0x2F5A JUMPI POP DUP7 SWAP3 PUSH2 0x2F3D JUMPI JUMPDEST POP POP AND SUB PUSH2 0x2F37 JUMPI SWAP4 SWAP2 JUMPDEST PUSH14 0xFFFFFFFFFFFFFFFFFFFFFFFFFFFF DUP1 SWAP4 AND DUP5 ISZERO DUP1 ISZERO DUP1 PUSH2 0x2F2C JUMPI JUMPDEST DUP1 PUSH2 0x2F23 JUMPI JUMPDEST ISZERO PUSH2 0x1EDA JUMPI PUSH2 0x26F2 DUP1 DUP8 MUL SWAP7 DUP8 DIV EQ OR ISZERO PUSH2 0x2F10 JUMPI DUP4 PUSH2 0x2ED9 PUSH2 0x2710 SWAP3 DUP8 PUSH2 0x2ADE JUMP JUMPDEST SWAP7 AND MUL SWAP3 DUP4 AND SWAP3 DUP4 SUB PUSH2 0x2EFD JUMPI POP POP PUSH2 0x2EF6 SWAP3 SWAP2 PUSH2 0x1E29 SWAP2 PUSH2 0x21E9 JUMP JUMPDEST SWAP1 MLOAD GT ISZERO SWAP1 JUMP JUMPDEST SWAP1 PUSH1 0x11 PUSH1 0x24 SWAP3 PUSH4 0x4E487B71 PUSH1 0xE0 SHL DUP4 MSTORE MSTORE REVERT JUMPDEST PUSH1 0x24 DUP4 PUSH1 0x11 DUP5 PUSH4 0x4E487B71 PUSH1 0xE0 SHL DUP4 MSTORE MSTORE REVERT JUMPDEST POP DUP2 ISZERO ISZERO PUSH2 0x2EB6 JUMP JUMPDEST POP DUP5 DUP8 AND ISZERO ISZERO PUSH2 0x2EB0 JUMP JUMPDEST SWAP2 PUSH2 0x2E94 JUMP JUMPDEST PUSH2 0x2F53 SWAP3 POP DUP1 RETURNDATASIZE LT PUSH2 0x54E JUMPI PUSH2 0x540 DUP2 DUP4 PUSH2 0x2142 JUMP JUMPDEST CODESIZE DUP1 PUSH2 0x2E89 JUMP JUMPDEST MLOAD RETURNDATASIZE DUP9 DUP3 RETURNDATACOPY RETURNDATASIZE SWAP1 REVERT JUMPDEST SWAP6 POP SWAP9 POP PUSH1 0x60 DUP6 RETURNDATASIZE PUSH1 0x60 GT PUSH2 0x2FB8 JUMPI JUMPDEST DUP2 PUSH2 0x2F80 PUSH1 0x60 SWAP4 DUP4 PUSH2 0x2142 JUMP JUMPDEST DUP2 ADD SUB SLT PUSH2 0x2FB4 JUMPI PUSH2 0x2F91 DUP6 PUSH2 0x2183 JUMP JUMPDEST DUP3 PUSH2 0x2F9D DUP4 DUP9 ADD PUSH2 0x2183 JUMP JUMPDEST SWAP7 ADD MLOAD PUSH4 0xFFFFFFFF DUP2 AND SUB PUSH2 0x513 JUMPI SWAP5 SWAP9 DUP2 PUSH2 0x2E63 JUMP JUMPDEST DUP6 DUP1 REVERT JUMPDEST RETURNDATASIZE SWAP2 POP PUSH2 0x2F73 JUMP JUMPDEST DUP3 MLOAD RETURNDATASIZE DUP9 DUP3 RETURNDATACOPY RETURNDATASIZE SWAP1 REVERT JUMPDEST PUSH2 0x2FE1 SWAP2 POP DUP6 RETURNDATASIZE DUP8 GT PUSH2 0x54E JUMPI PUSH2 0x540 DUP2 DUP4 PUSH2 0x2142 JUMP JUMPDEST CODESIZE PUSH2 0x2E3B JUMP JUMPDEST DUP9 MLOAD RETURNDATASIZE DUP8 DUP3 RETURNDATACOPY RETURNDATASIZE SWAP1 REVERT JUMPDEST PUSH1 0x44 SWAP2 SWAP3 POP PUSH2 0x300C SWAP1 DUP5 RETURNDATASIZE DUP7 GT PUSH2 0x54E JUMPI PUSH2 0x540 DUP2 DUP4 PUSH2 0x2142 JUMP JUMPDEST SWAP2 SWAP1 PUSH2 0x2E08 JUMP JUMPDEST DUP10 MLOAD RETURNDATASIZE DUP9 DUP3 RETURNDATACOPY RETURNDATASIZE SWAP1 REVERT JUMPDEST PUSH1 0x24 DUP7 PUSH1 0x21 DUP6 PUSH4 0x4E487B71 PUSH1 0xE0 SHL DUP4 MSTORE MSTORE REVERT JUMPDEST SWAP1 PUSH1 0x0 SWAP2 DUP1 DUP4 MSTORE DUP3 PUSH1 0x20 MSTORE PUSH1 0x1 PUSH1 0x1 PUSH1 0xA0 SHL SUB PUSH1 0x40 DUP5 KECCAK256 SWAP3 AND SWAP2 DUP3 DUP5 MSTORE PUSH1 0x20 MSTORE PUSH1 0xFF PUSH1 0x40 DUP5 KECCAK256 SLOAD AND PUSH1 0x0 EQ PUSH2 0x2D2C JUMPI DUP1 DUP4 MSTORE DUP3 PUSH1 0x20 MSTORE PUSH1 0x40 DUP4 KECCAK256 DUP3 DUP5 MSTORE PUSH1 0x20 MSTORE PUSH1 0x40 DUP4 KECCAK256 PUSH1 0xFF NOT DUP2 SLOAD AND SWAP1 SSTORE PUSH32 0xF6391F5C32D9C69D2A47EA670B442974B53935D1EDC7FD64EB21E047A839171B CALLER SWAP4 DUP1 LOG4 PUSH1 0x1 SWAP1 JUMP JUMPDEST PUSH1 0x1 PUSH1 0x1 PUSH1 0xA0 SHL SUB AND SWAP1 PUSH1 0x0 DUP1 DUP3 PUSH1 0x20 DUP3 SWAP5 MLOAD SWAP2 ADD DUP3 DUP7 GAS CALL RETURNDATASIZE ISZERO PUSH2 0x3179 JUMPI RETURNDATASIZE PUSH8 0xFFFFFFFFFFFFFFFF DUP2 GT PUSH2 0x3165 JUMPI PUSH1 0x40 MLOAD PUSH2 0x3103 SWAP4 SWAP3 SWAP2 PUSH2 0x30F2 PUSH1 0x1F DUP3 ADD PUSH1 0x1F NOT AND PUSH1 0x20 ADD DUP4 PUSH2 0x2142 JUMP JUMPDEST DUP2 MSTORE DUP1 SWAP3 PUSH1 0x20 RETURNDATASIZE SWAP3 ADD RETURNDATACOPY JUMPDEST DUP4 PUSH2 0x31D1 JUMP JUMPDEST DUP1 MLOAD SWAP1 DUP2 ISZERO ISZERO SWAP2 DUP3 PUSH2 0x314A JUMPI JUMPDEST POP POP PUSH2 0x3119 JUMPI POP JUMP JUMPDEST PUSH1 0x24 SWAP1 PUSH1 0x40 MLOAD SWAP1 PUSH32 0x5274AFE700000000000000000000000000000000000000000000000000000000 DUP3 MSTORE PUSH1 0x4 DUP3 ADD MSTORE REVERT JUMPDEST PUSH2 0x315D SWAP3 POP PUSH1 0x20 DUP1 SWAP2 DUP4 ADD ADD SWAP2 ADD PUSH2 0x24F9 JUMP JUMPDEST ISZERO CODESIZE DUP1 PUSH2 0x3110 JUMP JUMPDEST PUSH1 0x24 DUP4 PUSH4 0x4E487B71 PUSH1 0xE0 SHL DUP2 MSTORE PUSH1 0x41 PUSH1 0x4 MSTORE REVERT JUMPDEST PUSH2 0x3103 SWAP2 POP PUSH1 0x60 SWAP1 PUSH2 0x30FD JUMP JUMPDEST ISZERO PUSH2 0x318D JUMPI JUMP JUMPDEST PUSH1 0x64 PUSH1 0x40 MLOAD PUSH3 0x461BCD PUSH1 0xE5 SHL DUP2 MSTORE PUSH1 0x20 PUSH1 0x4 DUP3 ADD MSTORE PUSH1 0x18 PUSH1 0x24 DUP3 ADD MSTORE PUSH32 0x4F7264657220686173206265656E20636F6D706C657465640000000000000000 PUSH1 0x44 DUP3 ADD MSTORE REVERT JUMPDEST SWAP1 PUSH2 0x3210 JUMPI POP DUP1 MLOAD ISZERO PUSH2 0x31E6 JUMPI DUP1 MLOAD SWAP1 PUSH1 0x20 ADD REVERT JUMPDEST PUSH1 0x4 PUSH1 0x40 MLOAD PUSH32 0x1425EA4200000000000000000000000000000000000000000000000000000000 DUP2 MSTORE REVERT JUMPDEST DUP2 MLOAD ISZERO DUP1 PUSH2 0x325B JUMPI JUMPDEST PUSH2 0x3221 JUMPI POP SWAP1 JUMP JUMPDEST PUSH1 0x24 SWAP1 PUSH1 0x1 PUSH1 0x1 PUSH1 0xA0 SHL SUB PUSH1 0x40 MLOAD SWAP2 PUSH32 0x9996B31500000000000000000000000000000000000000000000000000000000 DUP4 MSTORE AND PUSH1 0x4 DUP3 ADD MSTORE REVERT JUMPDEST POP DUP1 EXTCODESIZE ISZERO PUSH2 0x3219 JUMP INVALID LOG2 PUSH5 0x6970667358 0x22 SLT KECCAK256 POP CODECOPY BALANCE 0xC5 JUMP INVALID 0x29 0x2A 0xAB PUSH10 0x52CF85A739FD08B067B3 ORIGIN TSTORE PUSH2 0x527B 0x4F CALLER RETURNDATACOPY 0xBE PUSH4 0x62156473 PUSH16 0x6C634300081800332F8788117E7EFF1D DUP3 0xE9 0x26 0xEC PUSH26 0x4901D17C78024A50270940304540A733656F0D00000000000000 "
        },
        "methodIdentifiers": {
          "ADMIN_ROLE()": "75b238fc",
          "DEFAULT_ADMIN_ROLE()": "a217fddf",
          "cancelDCAOrder(bytes32)": "244719b5",
          "cancelLimitOrder(bytes32)": "4584eff6",
          "cancelSwapOrder(bytes32)": "892037e8",
          "cancelTranferOrder(bytes32)": "46662d0f",
          "createDCAOrder(address,address,uint256,uint64,uint256,uint8,uint8)": "b7649f48",
          "createLimitOrder(address,address,uint256,uint256,uint64,uint256)": "6e45bb57",
          "createTransferOrder(address,address,uint256,uint64,uint256,uint8,uint8)": "1f691f3a",
          "depositFunds(uint256)": "3b76594d",
          "getAmountOut(address,address,uint256,uint256)": "13cb1f83",
          "getRoleAdmin(bytes32)": "248a9ca3",
          "getTimely()": "efc48f06",
          "grantRole(bytes32,address)": "2f2ff15d",
          "hasRole(bytes32,address)": "91d14854",
          "pause()": "8456cb59",
          "paused()": "5c975abb",
          "renounceRole(bytes32,address)": "36568abe",
          "revokeRole(bytes32,address)": "d547741f",
          "supportsInterface(bytes4)": "01ffc9a7",
          "swapTokens(address,address,uint256,uint256,uint64,uint256)": "49488f0e",
          "timelyCallback((bytes32,uint64))": "308d6c96",
          "timelyMiddleware(bytes32)": "3076315a",
          "unPause()": "f7b188a5",
          "updateMagentaFee(uint256)": "2f4be9d0",
          "withdrawFees(address,uint256)": "ad3b1b47"
        }
      }
    }
  }
}